{
  "contractName": "SocialMusic",
  "abi": [
    {
      "constant": true,
      "inputs": [
        {
          "name": "",
          "type": "uint256"
        }
      ],
      "name": "userList",
      "outputs": [
        {
          "name": "",
          "type": "address"
        }
      ],
      "payable": false,
      "stateMutability": "view",
      "type": "function",
      "signature": "0x9f4216e8"
    },
    {
      "constant": true,
      "inputs": [
        {
          "name": "",
          "type": "address"
        }
      ],
      "name": "users",
      "outputs": [
        {
          "name": "name",
          "type": "bytes32"
        },
        {
          "name": "age",
          "type": "uint256"
        },
        {
          "name": "state",
          "type": "string"
        }
      ],
      "payable": false,
      "stateMutability": "view",
      "type": "function",
      "signature": "0xa87430ba"
    },
    {
      "constant": false,
      "inputs": [
        {
          "name": "_songName",
          "type": "string"
        }
      ],
      "name": "addSong",
      "outputs": [],
      "payable": false,
      "stateMutability": "nonpayable",
      "type": "function",
      "signature": "0x7f590f5e"
    },
    {
      "constant": false,
      "inputs": [
        {
          "name": "_name",
          "type": "bytes32"
        },
        {
          "name": "_age",
          "type": "uint256"
        },
        {
          "name": "_state",
          "type": "string"
        }
      ],
      "name": "setup",
      "outputs": [],
      "payable": false,
      "stateMutability": "nonpayable",
      "type": "function",
      "signature": "0x996fa3a5"
    },
    {
      "constant": false,
      "inputs": [
        {
          "name": "_user",
          "type": "address"
        }
      ],
      "name": "follow",
      "outputs": [],
      "payable": false,
      "stateMutability": "nonpayable",
      "type": "function",
      "signature": "0x4dbf27cc"
    },
    {
      "constant": true,
      "inputs": [],
      "name": "getUsersList",
      "outputs": [
        {
          "name": "",
          "type": "address[]"
        }
      ],
      "payable": false,
      "stateMutability": "view",
      "type": "function",
      "signature": "0xc74e13f3"
    },
    {
      "constant": true,
      "inputs": [
        {
          "name": "_user",
          "type": "address"
        },
        {
          "name": "_recommendationIndex",
          "type": "uint256"
        }
      ],
      "name": "getUsersMusicRecommendation",
      "outputs": [
        {
          "name": "",
          "type": "string"
        }
      ],
      "payable": false,
      "stateMutability": "view",
      "type": "function",
      "signature": "0x1e6abbb1"
    },
    {
      "constant": true,
      "inputs": [
        {
          "name": "_user",
          "type": "address"
        }
      ],
      "name": "getUsersMusicRecommendationLength",
      "outputs": [
        {
          "name": "",
          "type": "uint256"
        }
      ],
      "payable": false,
      "stateMutability": "view",
      "type": "function",
      "signature": "0x971c6c7f"
    },
    {
      "constant": true,
      "inputs": [
        {
          "name": "_user",
          "type": "address"
        }
      ],
      "name": "getUsersFollowings",
      "outputs": [
        {
          "name": "",
          "type": "address[]"
        }
      ],
      "payable": false,
      "stateMutability": "view",
      "type": "function",
      "signature": "0xebf07248"
    }
  ],
  "bytecode": "0x608060405234801561001057600080fd5b506111c2806100206000396000f3fe608060405260043610610099576000357c0100000000000000000000000000000000000000000000000000000000900463ffffffff1680631e6abbb11461009e5780634dbf27cc146101725780637f590f5e146101c3578063971c6c7f1461028b578063996fa3a5146102f05780639f4216e8146103cc578063a87430ba14610447578063c74e13f31461051f578063ebf072481461058b575b600080fd5b3480156100aa57600080fd5b506100f7600480360360408110156100c157600080fd5b81019080803573ffffffffffffffffffffffffffffffffffffffff16906020019092919080359060200190929190505050610631565b6040518080602001828103825283818151815260200191508051906020019080838360005b8381101561013757808201518184015260208101905061011c565b50505050905090810190601f1680156101645780820380516001836020036101000a031916815260200191505b509250505060405180910390f35b34801561017e57600080fd5b506101c16004803603602081101561019557600080fd5b81019080803573ffffffffffffffffffffffffffffffffffffffff16906020019092919050505061072c565b005b3480156101cf57600080fd5b50610289600480360360208110156101e657600080fd5b810190808035906020019064010000000081111561020357600080fd5b82018360208201111561021557600080fd5b8035906020019184600183028401116401000000008311171561023757600080fd5b91908080601f016020809104026020016040519081016040528093929190818152602001838380828437600081840152601f19601f820116905080830192505050505050509192919290505050610810565b005b34801561029757600080fd5b506102da600480360360208110156102ae57600080fd5b81019080803573ffffffffffffffffffffffffffffffffffffffff1690602001909291905050506108af565b6040518082815260200191505060405180910390f35b3480156102fc57600080fd5b506103ca6004803603606081101561031357600080fd5b8101908080359060200190929190803590602001909291908035906020019064010000000081111561034457600080fd5b82018360208201111561035657600080fd5b8035906020019184600183028401116401000000008311171561037857600080fd5b91908080601f016020809104026020016040519081016040528093929190818152602001838380828437600081840152601f19601f8201169050808301925050505050505091929192905050506108fd565b005b3480156103d857600080fd5b50610405600480360360208110156103ef57600080fd5b8101908080359060200190929190505050610c40565b604051808273ffffffffffffffffffffffffffffffffffffffff1673ffffffffffffffffffffffffffffffffffffffff16815260200191505060405180910390f35b34801561045357600080fd5b506104966004803603602081101561046a57600080fd5b81019080803573ffffffffffffffffffffffffffffffffffffffff169060200190929190505050610c7e565b6040518084815260200183815260200180602001828103825283818151815260200191508051906020019080838360005b838110156104e25780820151818401526020810190506104c7565b50505050905090810190601f16801561050f5780820380516001836020036101000a031916815260200191505b5094505050505060405180910390f35b34801561052b57600080fd5b50610534610d40565b6040518080602001828103825283818151815260200191508051906020019060200280838360005b8381101561057757808201518184015260208101905061055c565b505050509050019250505060405180910390f35b34801561059757600080fd5b506105da600480360360208110156105ae57600080fd5b81019080803573ffffffffffffffffffffffffffffffffffffffff169060200190929190505050610dce565b6040518080602001828103825283818151815260200191508051906020019060200280838360005b8381101561061d578082015181840152602081019050610602565b505050509050019250505060405180910390f35b60606000808473ffffffffffffffffffffffffffffffffffffffff1673ffffffffffffffffffffffffffffffffffffffff1681526020019081526020016000206003018281548110151561068157fe5b906000526020600020018054600181600116156101000203166002900480601f01602080910402602001604051908101604052809291908181526020018280546001816001161561010002031660029004801561071f5780601f106106f45761010080835404028352916020019161071f565b820191906000526020600020905b81548152906001019060200180831161070257829003601f168201915b5050505050905092915050565b600073ffffffffffffffffffffffffffffffffffffffff168173ffffffffffffffffffffffffffffffffffffffff161415151561076857600080fd5b6000803373ffffffffffffffffffffffffffffffffffffffff1673ffffffffffffffffffffffffffffffffffffffff1681526020019081526020016000206004018190806001815401808255809150509060018203906000526020600020016000909192909190916101000a81548173ffffffffffffffffffffffffffffffffffffffff021916908373ffffffffffffffffffffffffffffffffffffffff1602179055505050565b6000815111801561082357506064815111155b151561082e57600080fd5b6000803373ffffffffffffffffffffffffffffffffffffffff1673ffffffffffffffffffffffffffffffffffffffff1681526020019081526020016000206003018190806001815401808255809150509060018203906000526020600020016000909192909190915090805190602001906108aa929190610e9d565b505050565b60008060008373ffffffffffffffffffffffffffffffffffffffff1673ffffffffffffffffffffffffffffffffffffffff168152602001908152602001600020600301805490509050919050565b6000602060ff1611151561091057600080fd5b610918610f1d565b60a0604051908101604052808581526020018481526020018381526020016000803373ffffffffffffffffffffffffffffffffffffffff1673ffffffffffffffffffffffffffffffffffffffff168152602001908152602001600020600301805480602002602001604051908101604052809291908181526020016000905b82821015610a53578382906000526020600020018054600181600116156101000203166002900480601f016020809104026020016040519081016040528092919081815260200182805460018160011615610100020316600290048015610a3f5780601f10610a1457610100808354040283529160200191610a3f565b820191906000526020600020905b815481529060010190602001808311610a2257829003601f168201915b505050505081526020019060010190610997565b5050505081526020016000803373ffffffffffffffffffffffffffffffffffffffff1673ffffffffffffffffffffffffffffffffffffffff168152602001908152602001600020600401805480602002602001604051908101604052809291908181526020018280548015610b1d57602002820191906000526020600020905b8160009054906101000a900473ffffffffffffffffffffffffffffffffffffffff1673ffffffffffffffffffffffffffffffffffffffff1681526020019060010190808311610ad3575b50505050508152509050806000803373ffffffffffffffffffffffffffffffffffffffff1673ffffffffffffffffffffffffffffffffffffffff16815260200190815260200160002060008201518160000155602082015181600101556040820151816002019080519060200190610b96929190610f50565b506060820151816003019080519060200190610bb3929190610fd0565b506080820151816004019080519060200190610bd0929190611030565b5090505060013390806001815401808255809150509060018203906000526020600020016000909192909190916101000a81548173ffffffffffffffffffffffffffffffffffffffff021916908373ffffffffffffffffffffffffffffffffffffffff1602179055505050505050565b600181815481101515610c4f57fe5b906000526020600020016000915054906101000a900473ffffffffffffffffffffffffffffffffffffffff1681565b6000602052806000526040600020600091509050806000015490806001015490806002018054600181600116156101000203166002900480601f016020809104026020016040519081016040528092919081815260200182805460018160011615610100020316600290048015610d365780601f10610d0b57610100808354040283529160200191610d36565b820191906000526020600020905b815481529060010190602001808311610d1957829003601f168201915b5050505050905083565b60606001805480602002602001604051908101604052809291908181526020018280548015610dc457602002820191906000526020600020905b8160009054906101000a900473ffffffffffffffffffffffffffffffffffffffff1673ffffffffffffffffffffffffffffffffffffffff1681526020019060010190808311610d7a575b5050505050905090565b60606000808373ffffffffffffffffffffffffffffffffffffffff1673ffffffffffffffffffffffffffffffffffffffff168152602001908152602001600020600401805480602002602001604051908101604052809291908181526020018280548015610e9157602002820191906000526020600020905b8160009054906101000a900473ffffffffffffffffffffffffffffffffffffffff1673ffffffffffffffffffffffffffffffffffffffff1681526020019060010190808311610e47575b50505050509050919050565b828054600181600116156101000203166002900490600052602060002090601f016020900481019282601f10610ede57805160ff1916838001178555610f0c565b82800160010185558215610f0c579182015b82811115610f0b578251825591602001919060010190610ef0565b5b509050610f1991906110ba565b5090565b60a06040519081016040528060008019168152602001600081526020016060815260200160608152602001606081525090565b828054600181600116156101000203166002900490600052602060002090601f016020900481019282601f10610f9157805160ff1916838001178555610fbf565b82800160010185558215610fbf579182015b82811115610fbe578251825591602001919060010190610fa3565b5b509050610fcc91906110ba565b5090565b82805482825590600052602060002090810192821561101f579160200282015b8281111561101e57825182908051906020019061100e929190610f50565b5091602001919060010190610ff0565b5b50905061102c91906110df565b5090565b8280548282559060005260206000209081019282156110a9579160200282015b828111156110a85782518260006101000a81548173ffffffffffffffffffffffffffffffffffffffff021916908373ffffffffffffffffffffffffffffffffffffffff16021790555091602001919060010190611050565b5b5090506110b6919061110b565b5090565b6110dc91905b808211156110d85760008160009055506001016110c0565b5090565b90565b61110891905b8082111561110457600081816110fb919061114e565b506001016110e5565b5090565b90565b61114b91905b8082111561114757600081816101000a81549073ffffffffffffffffffffffffffffffffffffffff021916905550600101611111565b5090565b90565b50805460018160011615610100020316600290046000825580601f106111745750611193565b601f01602090049060005260206000209081019061119291906110ba565b5b5056fea165627a7a72305820edb15b1e7937554a13b6e15b82a273090b1c05ee003ba3cbab9766219f49d22e0029",
  "source": "pragma solidity 0.5.0;\r\n\r\ncontract SocialMusic {\r\n    struct User {\r\n        bytes32 name;\r\n        uint256 age;\r\n        string state; // A short description of who they are or how they feel\r\n        string[] musicRecommendations;\r\n        address[] following;\r\n    }\r\n    mapping(address => User) public users;\r\n    address[] public userList;\r\n\r\n    // To add a new musical recommendation\r\n    function addSong(string memory _songName) public {\r\n        require(bytes(_songName).length > 0 && bytes(_songName).length <= 100);\r\n        users[msg.sender].musicRecommendations.push(_songName);\r\n    }\r\n\r\n    // To setup user information\r\n    function setup(bytes32 _name, uint256 _age, string memory _state) public {\r\n        require(_name.length > 0);\r\n        User memory newUser = User(_name, _age, _state, users[msg.sender].musicRecommendations, users[msg.sender].following);\r\n        users[msg.sender] = newUser;\r\n        userList.push(msg.sender);\r\n    }\r\n\r\n    // To follow new users\r\n    function follow(address _user) public {\r\n        require(_user != address(0));\r\n        users[msg.sender].following.push(_user);\r\n    }\r\n\r\n    // Returns the array of users\r\n    function getUsersList() public view returns(address[] memory) {\r\n        return userList;\r\n    }\r\n\r\n    // Returns the music recommendations\r\n    function getUsersMusicRecommendation(address _user, uint256 _recommendationIndex) public view returns(string memory) {\r\n        return users[_user].musicRecommendations[_recommendationIndex];\r\n    }\r\n\r\n    // Returns how many music recommendations that user has\r\n    function getUsersMusicRecommendationLength(address _user) public view returns(uint256) {\r\n        return users[_user].musicRecommendations.length;\r\n    }\r\n\r\n    // Returns the addresses of the users _user is following\r\n    function getUsersFollowings(address _user) public view returns(address[] memory) {\r\n        return users[_user].following;\r\n    }\r\n}\r\n",
  "sourcePath": "C:/Users/merun/Desktop/book/dapp/contracts/SocialMusic.sol",
  "compiler": {
    "name": "solc",
    "version": "0.5.0+commit.1d4f565a.Emscripten.clang"
  },
  "schemaVersion": "3.0.1",
  "updatedAt": "2019-02-13T18:23:02.766Z",
  "devdoc": {
    "methods": {}
  },
  "userdoc": {
    "methods": {}
  }
}