{
  "contractName": "DAX",
  "abi": [
    {
      "constant": true,
      "inputs": [
        {
          "name": "",
          "type": "bytes32"
        }
      ],
      "name": "tokenAddressBySymbol",
      "outputs": [
        {
          "name": "",
          "type": "address"
        }
      ],
      "payable": false,
      "stateMutability": "view",
      "type": "function",
      "signature": "0x1008ed4b"
    },
    {
      "constant": true,
      "inputs": [
        {
          "name": "",
          "type": "bytes32"
        },
        {
          "name": "",
          "type": "uint256"
        }
      ],
      "name": "tokenPairs",
      "outputs": [
        {
          "name": "",
          "type": "bytes32"
        }
      ],
      "payable": false,
      "stateMutability": "view",
      "type": "function",
      "signature": "0x145bd99c"
    },
    {
      "constant": true,
      "inputs": [
        {
          "name": "",
          "type": "address"
        }
      ],
      "name": "escrowByUserAddress",
      "outputs": [
        {
          "name": "",
          "type": "address"
        }
      ],
      "payable": false,
      "stateMutability": "view",
      "type": "function",
      "signature": "0x1fd36a26"
    },
    {
      "constant": true,
      "inputs": [
        {
          "name": "",
          "type": "uint256"
        }
      ],
      "name": "whitelistedTokens",
      "outputs": [
        {
          "name": "",
          "type": "address"
        }
      ],
      "payable": false,
      "stateMutability": "view",
      "type": "function",
      "signature": "0x2154bc44"
    },
    {
      "constant": true,
      "inputs": [
        {
          "name": "",
          "type": "uint256"
        }
      ],
      "name": "buyOrders",
      "outputs": [
        {
          "name": "id",
          "type": "uint256"
        },
        {
          "name": "owner",
          "type": "address"
        },
        {
          "name": "orderType",
          "type": "bytes32"
        },
        {
          "name": "firstSymbol",
          "type": "bytes32"
        },
        {
          "name": "secondSymbol",
          "type": "bytes32"
        },
        {
          "name": "quantity",
          "type": "uint256"
        },
        {
          "name": "price",
          "type": "uint256"
        },
        {
          "name": "timestamp",
          "type": "uint256"
        },
        {
          "name": "state",
          "type": "uint8"
        }
      ],
      "payable": false,
      "stateMutability": "view",
      "type": "function",
      "signature": "0x35cea288"
    },
    {
      "constant": true,
      "inputs": [
        {
          "name": "",
          "type": "uint256"
        }
      ],
      "name": "users",
      "outputs": [
        {
          "name": "",
          "type": "address"
        }
      ],
      "payable": false,
      "stateMutability": "view",
      "type": "function",
      "signature": "0x365b98b2"
    },
    {
      "constant": true,
      "inputs": [
        {
          "name": "",
          "type": "uint256"
        }
      ],
      "name": "sellOrders",
      "outputs": [
        {
          "name": "id",
          "type": "uint256"
        },
        {
          "name": "owner",
          "type": "address"
        },
        {
          "name": "orderType",
          "type": "bytes32"
        },
        {
          "name": "firstSymbol",
          "type": "bytes32"
        },
        {
          "name": "secondSymbol",
          "type": "bytes32"
        },
        {
          "name": "quantity",
          "type": "uint256"
        },
        {
          "name": "price",
          "type": "uint256"
        },
        {
          "name": "timestamp",
          "type": "uint256"
        },
        {
          "name": "state",
          "type": "uint8"
        }
      ],
      "payable": false,
      "stateMutability": "view",
      "type": "function",
      "signature": "0x4a8393f3"
    },
    {
      "constant": true,
      "inputs": [
        {
          "name": "",
          "type": "bytes32"
        }
      ],
      "name": "isTokenSymbolWhitelisted",
      "outputs": [
        {
          "name": "",
          "type": "bool"
        }
      ],
      "payable": false,
      "stateMutability": "view",
      "type": "function",
      "signature": "0x84d2e770"
    },
    {
      "constant": true,
      "inputs": [
        {
          "name": "",
          "type": "uint256"
        }
      ],
      "name": "orderById",
      "outputs": [
        {
          "name": "id",
          "type": "uint256"
        },
        {
          "name": "owner",
          "type": "address"
        },
        {
          "name": "orderType",
          "type": "bytes32"
        },
        {
          "name": "firstSymbol",
          "type": "bytes32"
        },
        {
          "name": "secondSymbol",
          "type": "bytes32"
        },
        {
          "name": "quantity",
          "type": "uint256"
        },
        {
          "name": "price",
          "type": "uint256"
        },
        {
          "name": "timestamp",
          "type": "uint256"
        },
        {
          "name": "state",
          "type": "uint8"
        }
      ],
      "payable": false,
      "stateMutability": "view",
      "type": "function",
      "signature": "0x8d77eba5"
    },
    {
      "constant": true,
      "inputs": [],
      "name": "owner",
      "outputs": [
        {
          "name": "",
          "type": "address"
        }
      ],
      "payable": false,
      "stateMutability": "view",
      "type": "function",
      "signature": "0x8da5cb5b"
    },
    {
      "constant": true,
      "inputs": [
        {
          "name": "",
          "type": "uint256"
        }
      ],
      "name": "sellOrderIndexById",
      "outputs": [
        {
          "name": "",
          "type": "uint256"
        }
      ],
      "payable": false,
      "stateMutability": "view",
      "type": "function",
      "signature": "0x93c231f9"
    },
    {
      "constant": true,
      "inputs": [
        {
          "name": "",
          "type": "uint256"
        }
      ],
      "name": "closedOrders",
      "outputs": [
        {
          "name": "id",
          "type": "uint256"
        },
        {
          "name": "owner",
          "type": "address"
        },
        {
          "name": "orderType",
          "type": "bytes32"
        },
        {
          "name": "firstSymbol",
          "type": "bytes32"
        },
        {
          "name": "secondSymbol",
          "type": "bytes32"
        },
        {
          "name": "quantity",
          "type": "uint256"
        },
        {
          "name": "price",
          "type": "uint256"
        },
        {
          "name": "timestamp",
          "type": "uint256"
        },
        {
          "name": "state",
          "type": "uint8"
        }
      ],
      "payable": false,
      "stateMutability": "view",
      "type": "function",
      "signature": "0x97fe61b3"
    },
    {
      "constant": true,
      "inputs": [
        {
          "name": "",
          "type": "uint256"
        }
      ],
      "name": "buyOrderIndexById",
      "outputs": [
        {
          "name": "",
          "type": "uint256"
        }
      ],
      "payable": false,
      "stateMutability": "view",
      "type": "function",
      "signature": "0x9a0aac81"
    },
    {
      "constant": true,
      "inputs": [
        {
          "name": "",
          "type": "uint256"
        }
      ],
      "name": "whitelistedTokenSymbols",
      "outputs": [
        {
          "name": "",
          "type": "bytes32"
        }
      ],
      "payable": false,
      "stateMutability": "view",
      "type": "function",
      "signature": "0xab42950e"
    },
    {
      "constant": true,
      "inputs": [
        {
          "name": "",
          "type": "address"
        }
      ],
      "name": "isTokenWhitelisted",
      "outputs": [
        {
          "name": "",
          "type": "bool"
        }
      ],
      "payable": false,
      "stateMutability": "view",
      "type": "function",
      "signature": "0xb5af090f"
    },
    {
      "constant": true,
      "inputs": [],
      "name": "orderIdCounter",
      "outputs": [
        {
          "name": "",
          "type": "uint256"
        }
      ],
      "payable": false,
      "stateMutability": "view",
      "type": "function",
      "signature": "0xbe374423"
    },
    {
      "inputs": [],
      "payable": false,
      "stateMutability": "nonpayable",
      "type": "constructor",
      "signature": "constructor"
    },
    {
      "payable": false,
      "stateMutability": "nonpayable",
      "type": "fallback"
    },
    {
      "anonymous": false,
      "inputs": [
        {
          "indexed": false,
          "name": "_type",
          "type": "bytes32"
        },
        {
          "indexed": true,
          "name": "from",
          "type": "address"
        },
        {
          "indexed": true,
          "name": "to",
          "type": "address"
        },
        {
          "indexed": false,
          "name": "tokenSymbol",
          "type": "bytes32"
        },
        {
          "indexed": false,
          "name": "quantity",
          "type": "uint256"
        }
      ],
      "name": "TransferOrder",
      "type": "event",
      "signature": "0xc6c91f7a4774dcb66be4d0dafc2fe6d1bf3ae288057273c21f90989508ee9a31"
    },
    {
      "constant": false,
      "inputs": [
        {
          "name": "_symbol",
          "type": "bytes32"
        },
        {
          "name": "_token",
          "type": "address"
        },
        {
          "name": "_tokenPairSymbols",
          "type": "bytes32[]"
        },
        {
          "name": "_tokenPairAddresses",
          "type": "address[]"
        }
      ],
      "name": "whitelistToken",
      "outputs": [],
      "payable": false,
      "stateMutability": "nonpayable",
      "type": "function",
      "signature": "0x2a69d0a8"
    },
    {
      "constant": false,
      "inputs": [
        {
          "name": "_token",
          "type": "address"
        },
        {
          "name": "_amount",
          "type": "uint256"
        }
      ],
      "name": "depositTokens",
      "outputs": [],
      "payable": false,
      "stateMutability": "nonpayable",
      "type": "function",
      "signature": "0x66168bd7"
    },
    {
      "constant": false,
      "inputs": [
        {
          "name": "_token",
          "type": "address"
        },
        {
          "name": "_amount",
          "type": "uint256"
        }
      ],
      "name": "extractTokens",
      "outputs": [],
      "payable": false,
      "stateMutability": "nonpayable",
      "type": "function",
      "signature": "0x14cc25e8"
    },
    {
      "constant": false,
      "inputs": [
        {
          "name": "_type",
          "type": "bytes32"
        },
        {
          "name": "_firstSymbol",
          "type": "bytes32"
        },
        {
          "name": "_secondSymbol",
          "type": "bytes32"
        },
        {
          "name": "_quantity",
          "type": "uint256"
        }
      ],
      "name": "marketOrder",
      "outputs": [],
      "payable": false,
      "stateMutability": "nonpayable",
      "type": "function",
      "signature": "0xa4d515ae"
    },
    {
      "constant": false,
      "inputs": [
        {
          "name": "_type",
          "type": "bytes32"
        },
        {
          "name": "_firstSymbol",
          "type": "bytes32"
        },
        {
          "name": "_secondSymbol",
          "type": "bytes32"
        },
        {
          "name": "_quantity",
          "type": "uint256"
        },
        {
          "name": "_pricePerToken",
          "type": "uint256"
        }
      ],
      "name": "limitOrder",
      "outputs": [],
      "payable": false,
      "stateMutability": "nonpayable",
      "type": "function",
      "signature": "0xfc5923d6"
    },
    {
      "constant": true,
      "inputs": [
        {
          "name": "_type",
          "type": "bytes32"
        }
      ],
      "name": "sortIdsByPrices",
      "outputs": [
        {
          "name": "",
          "type": "uint256[]"
        }
      ],
      "payable": false,
      "stateMutability": "view",
      "type": "function",
      "signature": "0xba0bd787"
    },
    {
      "constant": true,
      "inputs": [
        {
          "name": "_firstSymbol",
          "type": "bytes32"
        },
        {
          "name": "_secondSymbol",
          "type": "bytes32"
        }
      ],
      "name": "checkValidPair",
      "outputs": [
        {
          "name": "",
          "type": "bool"
        }
      ],
      "payable": false,
      "stateMutability": "view",
      "type": "function",
      "signature": "0xf0512c78"
    },
    {
      "constant": true,
      "inputs": [
        {
          "name": "_token",
          "type": "bytes32"
        }
      ],
      "name": "getTokenPairs",
      "outputs": [
        {
          "name": "",
          "type": "bytes32[]"
        }
      ],
      "payable": false,
      "stateMutability": "view",
      "type": "function",
      "signature": "0x84b8b681"
    },
    {
      "constant": true,
      "inputs": [
        {
          "name": "_type",
          "type": "bytes32"
        },
        {
          "name": "_index",
          "type": "uint256"
        }
      ],
      "name": "getOrder",
      "outputs": [
        {
          "name": "",
          "type": "uint256"
        },
        {
          "name": "",
          "type": "address"
        },
        {
          "name": "",
          "type": "bytes32"
        },
        {
          "name": "",
          "type": "bytes32"
        },
        {
          "name": "",
          "type": "bytes32"
        },
        {
          "name": "",
          "type": "uint256"
        },
        {
          "name": "",
          "type": "uint256"
        },
        {
          "name": "",
          "type": "uint256"
        },
        {
          "name": "",
          "type": "uint8"
        }
      ],
      "payable": false,
      "stateMutability": "view",
      "type": "function",
      "signature": "0x2733be09"
    },
    {
      "constant": true,
      "inputs": [
        {
          "name": "_type",
          "type": "bytes32"
        }
      ],
      "name": "getOrderLength",
      "outputs": [
        {
          "name": "",
          "type": "uint256"
        }
      ],
      "payable": false,
      "stateMutability": "view",
      "type": "function",
      "signature": "0x2e42fbef"
    },
    {
      "constant": true,
      "inputs": [],
      "name": "getWhitelistedTokenSymbols",
      "outputs": [
        {
          "name": "",
          "type": "bytes32[]"
        }
      ],
      "payable": false,
      "stateMutability": "view",
      "type": "function",
      "signature": "0x56bf8368"
    }
  ],
  "bytecode": "0x608060405234801561001057600080fd5b5033600460006101000a81548173ffffffffffffffffffffffffffffffffffffffff021916908373ffffffffffffffffffffffffffffffffffffffff160217905550615e4880620000626000396000f3fe60806040523480156200001157600080fd5b5060043610620001ef576000357c01000000000000000000000000000000000000000000000000000000009004806384b8b681116200012e578063a4d515ae11620000c2578063ba0bd7871162000098578063ba0bd7871462000d22578063be3744231462000daa578063f0512c781462000dca578063fc5923d61462000e1d57620001ef565b8063a4d515ae1462000c2f578063ab42950e1462000c7e578063b5af090f1462000cc357620001ef565b80638da5cb5b11620001045780638da5cb5b1462000aa157806393c231f91462000aed57806397fe61b31462000b325780639a0aac811462000bea57620001ef565b806384b8b681146200091857806384d2e77014620009a05780638d77eba514620009e957620001ef565b80632a69d0a811620001a6578063365b98b2116200017c578063365b98b2146200073b5780634a8393f314620007ac57806356bf8368146200086457806366168bd714620008c757620001ef565b80632a69d0a814620004bf5780632e42fbef146200063e57806335cea288146200068357620001ef565b80631008ed4b14620001f4578063145bd99c146200026557806314cc25e814620002b45780631fd36a2614620003055780632154bc44146200038c5780632733be0914620003fd575b600080fd5b62000223600480360360208110156200020c57600080fd5b810190808035906020019092919050505062000e76565b604051808273ffffffffffffffffffffffffffffffffffffffff1673ffffffffffffffffffffffffffffffffffffffff16815260200191505060405180910390f35b6200029e600480360360408110156200027d57600080fd5b81019080803590602001909291908035906020019092919050505062000ea9565b6040518082815260200191505060405180910390f35b6200030360048036036040811015620002cc57600080fd5b81019080803573ffffffffffffffffffffffffffffffffffffffff1690602001909291908035906020019092919050505062000eda565b005b6200034a600480360360208110156200031d57600080fd5b81019080803573ffffffffffffffffffffffffffffffffffffffff16906020019092919050505062001115565b604051808273ffffffffffffffffffffffffffffffffffffffff1673ffffffffffffffffffffffffffffffffffffffff16815260200191505060405180910390f35b620003bb60048036036020811015620003a457600080fd5b810190808035906020019092919050505062001148565b604051808273ffffffffffffffffffffffffffffffffffffffff1673ffffffffffffffffffffffffffffffffffffffff16815260200191505060405180910390f35b62000436600480360360408110156200041557600080fd5b81019080803590602001909291908035906020019092919050505062001187565b604051808a81526020018973ffffffffffffffffffffffffffffffffffffffff1673ffffffffffffffffffffffffffffffffffffffff168152602001888152602001878152602001868152602001858152602001848152602001838152602001826001811115620004a357fe5b60ff168152602001995050505050505050505060405180910390f35b6200063c60048036036080811015620004d757600080fd5b8101908080359060200190929190803573ffffffffffffffffffffffffffffffffffffffff169060200190929190803590602001906401000000008111156200051f57600080fd5b8201836020820111156200053257600080fd5b803590602001918460208302840111640100000000831117156200055557600080fd5b919080806020026020016040519081016040528093929190818152602001838360200280828437600081840152601f19601f82011690508083019250505050505050919291929080359060200190640100000000811115620005b657600080fd5b820183602082011115620005c957600080fd5b80359060200191846020830284011164010000000083111715620005ec57600080fd5b919080806020026020016040519081016040528093929190818152602001838360200280828437600081840152601f19601f8201169050808301925050505050505091929192905050506200155f565b005b6200066d600480360360208110156200065657600080fd5b810190808035906020019092919050505062001bda565b6040518082815260200191505060405180910390f35b620006b2600480360360208110156200069b57600080fd5b810190808035906020019092919050505062001c87565b604051808a81526020018973ffffffffffffffffffffffffffffffffffffffff1673ffffffffffffffffffffffffffffffffffffffff1681526020018881526020018781526020018681526020018581526020018481526020018381526020018260018111156200071f57fe5b60ff168152602001995050505050505050505060405180910390f35b6200076a600480360360208110156200075357600080fd5b810190808035906020019092919050505062001d12565b604051808273ffffffffffffffffffffffffffffffffffffffff1673ffffffffffffffffffffffffffffffffffffffff16815260200191505060405180910390f35b620007db60048036036020811015620007c457600080fd5b810190808035906020019092919050505062001d51565b604051808a81526020018973ffffffffffffffffffffffffffffffffffffffff1673ffffffffffffffffffffffffffffffffffffffff1681526020018881526020018781526020018681526020018581526020018481526020018381526020018260018111156200084857fe5b60ff168152602001995050505050505050505060405180910390f35b6200086e62001ddc565b6040518080602001828103825283818151815260200191508051906020019060200280838360005b83811015620008b357808201518184015260208101905062000896565b505050509050019250505060405180910390f35b6200091660048036036040811015620008df57600080fd5b81019080803573ffffffffffffffffffffffffffffffffffffffff1690602001909291908035906020019092919050505062001e36565b005b62000947600480360360208110156200093057600080fd5b810190808035906020019092919050505062002485565b6040518080602001828103825283818151815260200191508051906020019060200280838360005b838110156200098c5780820151818401526020810190506200096f565b505050509050019250505060405180910390f35b620009cf60048036036020811015620009b857600080fd5b8101908080359060200190929190505050620024f2565b604051808215151515815260200191505060405180910390f35b62000a186004803603602081101562000a0157600080fd5b810190808035906020019092919050505062002512565b604051808a81526020018973ffffffffffffffffffffffffffffffffffffffff1673ffffffffffffffffffffffffffffffffffffffff16815260200188815260200187815260200186815260200185815260200184815260200183815260200182600181111562000a8557fe5b60ff168152602001995050505050505050505060405180910390f35b62000aab6200258d565b604051808273ffffffffffffffffffffffffffffffffffffffff1673ffffffffffffffffffffffffffffffffffffffff16815260200191505060405180910390f35b62000b1c6004803603602081101562000b0557600080fd5b8101908080359060200190929190505050620025b3565b6040518082815260200191505060405180910390f35b62000b616004803603602081101562000b4a57600080fd5b8101908080359060200190929190505050620025cb565b604051808a81526020018973ffffffffffffffffffffffffffffffffffffffff1673ffffffffffffffffffffffffffffffffffffffff16815260200188815260200187815260200186815260200185815260200184815260200183815260200182600181111562000bce57fe5b60ff168152602001995050505050505050505060405180910390f35b62000c196004803603602081101562000c0257600080fd5b810190808035906020019092919050505062002656565b6040518082815260200191505060405180910390f35b62000c7c6004803603608081101562000c4757600080fd5b81019080803590602001909291908035906020019092919080359060200190929190803590602001909291905050506200266e565b005b62000cad6004803603602081101562000c9657600080fd5b810190808035906020019092919050505062003c55565b6040518082815260200191505060405180910390f35b62000d086004803603602081101562000cdb57600080fd5b81019080803573ffffffffffffffffffffffffffffffffffffffff16906020019092919050505062003c79565b604051808215151515815260200191505060405180910390f35b62000d516004803603602081101562000d3a57600080fd5b810190808035906020019092919050505062003c99565b6040518080602001828103825283818151815260200191508051906020019060200280838360005b8381101562000d9657808201518184015260208101905062000d79565b505050509050019250505060405180910390f35b62000db4620041de565b6040518082815260200191505060405180910390f35b62000e036004803603604081101562000de257600080fd5b810190808035906020019092919080359060200190929190505050620041e4565b604051808215151515815260200191505060405180910390f35b62000e74600480360360a081101562000e3557600080fd5b810190808035906020019092919080359060200190929190803590602001909291908035906020019092919080359060200190929190505050620042a6565b005b600b6020528060005260406000206000915054906101000a900473ffffffffffffffffffffffffffffffffffffffff1681565b600a6020528160005260406000208181548110151562000ec557fe5b90600052602060002001600091509150505481565b600073ffffffffffffffffffffffffffffffffffffffff168273ffffffffffffffffffffffffffffffffffffffff161415151562000f64576040517f08c379a000000000000000000000000000000000000000000000000000000000815260040180806020018281038252602281526020018062005ae86022913960400191505060405180910390fd5b60008111151562000fc1576040517f08c379a000000000000000000000000000000000000000000000000000000000815260040180806020018281038252603481526020018062005c886034913960400191505060405180910390fd5b600f60003373ffffffffffffffffffffffffffffffffffffffff1673ffffffffffffffffffffffffffffffffffffffff16815260200190815260200160002060009054906101000a900473ffffffffffffffffffffffffffffffffffffffff1673ffffffffffffffffffffffffffffffffffffffff1663a64b6e5f8333846040518463ffffffff167c0100000000000000000000000000000000000000000000000000000000028152600401808473ffffffffffffffffffffffffffffffffffffffff1673ffffffffffffffffffffffffffffffffffffffff1681526020018373ffffffffffffffffffffffffffffffffffffffff1673ffffffffffffffffffffffffffffffffffffffff1681526020018281526020019350505050600060405180830381600087803b158015620010f857600080fd5b505af11580156200110d573d6000803e3d6000fd5b505050505050565b600f6020528060005260406000206000915054906101000a900473ffffffffffffffffffffffffffffffffffffffff1681565b6005818154811015156200115857fe5b906000526020600020016000915054906101000a900473ffffffffffffffffffffffffffffffffffffffff1681565b60008060008060008060008060006200119f62004ff6565b7f62757900000000000000000000000000000000000000000000000000000000008c1415620012c65760008b815481101515620011d857fe5b90600052602060002090600902016101206040519081016040529081600082015481526020016001820160009054906101000a900473ffffffffffffffffffffffffffffffffffffffff1673ffffffffffffffffffffffffffffffffffffffff1673ffffffffffffffffffffffffffffffffffffffff1681526020016002820154815260200160038201548152602001600482015481526020016005820154815260200160068201548152602001600782015481526020016008820160009054906101000a900460ff166001811115620012ae57fe5b6001811115620012ba57fe5b81525050905062001511565b7f73656c6c000000000000000000000000000000000000000000000000000000008c1415620013ed5760018b815481101515620012ff57fe5b90600052602060002090600902016101206040519081016040529081600082015481526020016001820160009054906101000a900473ffffffffffffffffffffffffffffffffffffffff1673ffffffffffffffffffffffffffffffffffffffff1673ffffffffffffffffffffffffffffffffffffffff1681526020016002820154815260200160038201548152602001600482015481526020016005820154815260200160068201548152602001600782015481526020016008820160009054906101000a900460ff166001811115620013d557fe5b6001811115620013e157fe5b81525050905062001510565b7f636c6f73656400000000000000000000000000000000000000000000000000008c14156200150f5760028b8154811015156200142657fe5b90600052602060002090600902016101206040519081016040529081600082015481526020016001820160009054906101000a900473ffffffffffffffffffffffffffffffffffffffff1673ffffffffffffffffffffffffffffffffffffffff1673ffffffffffffffffffffffffffffffffffffffff1681526020016002820154815260200160038201548152602001600482015481526020016005820154815260200160068201548152602001600782015481526020016008820160009054906101000a900460ff166001811115620014fc57fe5b60018111156200150857fe5b8152505090505b5b5b806000015181602001518260400151836060015184608001518560a001518660c001518760e00151886101000151995099509950995099509950995099509950509295985092959850929598565b600460009054906101000a900473ffffffffffffffffffffffffffffffffffffffff1673ffffffffffffffffffffffffffffffffffffffff163373ffffffffffffffffffffffffffffffffffffffff1614151562001609576040517f08c379a000000000000000000000000000000000000000000000000000000000815260040180806020018281038252602e81526020018062005cf2602e913960400191505060405180910390fd5b600073ffffffffffffffffffffffffffffffffffffffff168373ffffffffffffffffffffffffffffffffffffffff161415151562001693576040517f08c379a000000000000000000000000000000000000000000000000000000000815260040180806020018281038252602f81526020018062005b3f602f913960400191505060405180910390fd5b60008373ffffffffffffffffffffffffffffffffffffffff166318160ddd6040518163ffffffff167c010000000000000000000000000000000000000000000000000000000002815260040160206040518083038186803b158015620016f857600080fd5b505afa1580156200170d573d6000803e3d6000fd5b505050506040513d60208110156200172457600080fd5b81019080805190602001909291905050501115156200178f576040517f08c379a000000000000000000000000000000000000000000000000000000000815260040180806020018281038252603681526020018062005cbc6036913960400191505060405180910390fd5b81518151141515620017ed576040517f08c379a000000000000000000000000000000000000000000000000000000000815260040180806020018281038252603681526020018062005ab26036913960400191505060405180910390fd5b6001600860008573ffffffffffffffffffffffffffffffffffffffff1673ffffffffffffffffffffffffffffffffffffffff16815260200190815260200160002060006101000a81548160ff02191690831515021790555060016009600086815260200190815260200160002060006101000a81548160ff02191690831515021790555060058390806001815401808255809150509060018203906000526020600020016000909192909190916101000a81548173ffffffffffffffffffffffffffffffffffffffff021916908373ffffffffffffffffffffffffffffffffffffffff16021790555050600684908060018154018082558091505090600182039060005260206000200160009091929091909150555082600b600086815260200190815260200160002060006101000a81548173ffffffffffffffffffffffffffffffffffffffff021916908373ffffffffffffffffffffffffffffffffffffffff16021790555081600a600086815260200190815260200160002090805190602001906200197e9291906200506e565b5060008090505b815181101562001bd35760008282815181101515620019a057fe5b90602001906020020151905060008483815181101515620019bd57fe5b906020019060200201519050600a6000828152602001908152602001600020879080600181540180825580915050906001820390600052602060002001600090919290919091505550600860008373ffffffffffffffffffffffffffffffffffffffff1673ffffffffffffffffffffffffffffffffffffffff16815260200190815260200160002060009054906101000a900460ff16151562001bc3576001600860008473ffffffffffffffffffffffffffffffffffffffff1673ffffffffffffffffffffffffffffffffffffffff16815260200190815260200160002060006101000a81548160ff02191690831515021790555060016009600083815260200190815260200160002060006101000a81548160ff02191690831515021790555060058290806001815401808255809150509060018203906000526020600020016000909192909190916101000a81548173ffffffffffffffffffffffffffffffffffffffff021916908373ffffffffffffffffffffffffffffffffffffffff16021790555050600681908060018154018082558091505090600182039060005260206000200160009091929091909150555081600b600083815260200190815260200160002060006101000a81548173ffffffffffffffffffffffffffffffffffffffff021916908373ffffffffffffffffffffffffffffffffffffffff1602179055505b5050808060010191505062001985565b5050505050565b60007f627579000000000000000000000000000000000000000000000000000000000082141562001c1357600080549050905062001c82565b7f73656c6c0000000000000000000000000000000000000000000000000000000082141562001c4a57600180549050905062001c82565b7f636c6f736564000000000000000000000000000000000000000000000000000082141562001c8157600280549050905062001c82565b5b919050565b60008181548110151562001c9757fe5b90600052602060002090600902016000915090508060000154908060010160009054906101000a900473ffffffffffffffffffffffffffffffffffffffff16908060020154908060030154908060040154908060050154908060060154908060070154908060080160009054906101000a900460ff16905089565b60078181548110151562001d2257fe5b906000526020600020016000915054906101000a900473ffffffffffffffffffffffffffffffffffffffff1681565b60018181548110151562001d6157fe5b90600052602060002090600902016000915090508060000154908060010160009054906101000a900473ffffffffffffffffffffffffffffffffffffffff16908060020154908060030154908060040154908060050154908060060154908060070154908060080160009054906101000a900460ff16905089565b6060600680548060200260200160405190810160405280929190818152602001828054801562001e2c57602002820191906000526020600020905b81548152602001906001019080831162001e17575b5050505050905090565b600860008373ffffffffffffffffffffffffffffffffffffffff1673ffffffffffffffffffffffffffffffffffffffff16815260200190815260200160002060009054906101000a900460ff16151562001edc576040517f08c379a000000000000000000000000000000000000000000000000000000000815260040180806020018281038252602881526020018062005dae6028913960400191505060405180910390fd5b600073ffffffffffffffffffffffffffffffffffffffff168273ffffffffffffffffffffffffffffffffffffffff161415151562001f66576040517f08c379a000000000000000000000000000000000000000000000000000000000815260040180806020018281038252602281526020018062005ae86022913960400191505060405180910390fd5b60008111151562001fc3576040517f08c379a000000000000000000000000000000000000000000000000000000000815260040180806020018281038252603481526020018062005c886034913960400191505060405180910390fd5b808273ffffffffffffffffffffffffffffffffffffffff1663dd62ed3e33306040518363ffffffff167c0100000000000000000000000000000000000000000000000000000000028152600401808373ffffffffffffffffffffffffffffffffffffffff1673ffffffffffffffffffffffffffffffffffffffff1681526020018273ffffffffffffffffffffffffffffffffffffffff1673ffffffffffffffffffffffffffffffffffffffff1681526020019250505060206040518083038186803b1580156200209257600080fd5b505afa158015620020a7573d6000803e3d6000fd5b505050506040513d6020811015620020be57600080fd5b8101908080519060200190929190505050101515156200212a576040517f08c379a000000000000000000000000000000000000000000000000000000000815260040180806020018281038252604881526020018062005bbc6048913960600191505060405180910390fd5b600073ffffffffffffffffffffffffffffffffffffffff16600f60003373ffffffffffffffffffffffffffffffffffffffff1673ffffffffffffffffffffffffffffffffffffffff16815260200190815260200160002060009054906101000a900473ffffffffffffffffffffffffffffffffffffffff1673ffffffffffffffffffffffffffffffffffffffff1614156200230c57600030604051620021d090620050c0565b808273ffffffffffffffffffffffffffffffffffffffff1673ffffffffffffffffffffffffffffffffffffffff168152602001915050604051809103906000f08015801562002223573d6000803e3d6000fd5b50905080600f60003373ffffffffffffffffffffffffffffffffffffffff1673ffffffffffffffffffffffffffffffffffffffff16815260200190815260200160002060006101000a81548173ffffffffffffffffffffffffffffffffffffffff021916908373ffffffffffffffffffffffffffffffffffffffff16021790555060073390806001815401808255809150509060018203906000526020600020016000909192909190916101000a81548173ffffffffffffffffffffffffffffffffffffffff021916908373ffffffffffffffffffffffffffffffffffffffff16021790555050505b8173ffffffffffffffffffffffffffffffffffffffff166323b872dd33600f60003373ffffffffffffffffffffffffffffffffffffffff1673ffffffffffffffffffffffffffffffffffffffff16815260200190815260200160002060009054906101000a900473ffffffffffffffffffffffffffffffffffffffff16846040518463ffffffff167c0100000000000000000000000000000000000000000000000000000000028152600401808473ffffffffffffffffffffffffffffffffffffffff1673ffffffffffffffffffffffffffffffffffffffff1681526020018373ffffffffffffffffffffffffffffffffffffffff1673ffffffffffffffffffffffffffffffffffffffff1681526020018281526020019350505050602060405180830381600087803b1580156200244357600080fd5b505af115801562002458573d6000803e3d6000fd5b505050506040513d60208110156200246f57600080fd5b8101908080519060200190929190505050505050565b6060600a6000838152602001908152602001600020805480602002602001604051908101604052809291908181526020018280548015620024e657602002820191906000526020600020905b815481526020019060010190808311620024d1575b50505050509050919050565b60096020528060005260406000206000915054906101000a900460ff1681565b600c6020528060005260406000206000915090508060000154908060010160009054906101000a900473ffffffffffffffffffffffffffffffffffffffff16908060020154908060030154908060040154908060050154908060060154908060070154908060080160009054906101000a900460ff16905089565b600460009054906101000a900473ffffffffffffffffffffffffffffffffffffffff1681565b600e6020528060005260406000206000915090505481565b600281815481101515620025db57fe5b90600052602060002090600902016000915090508060000154908060010160009054906101000a900473ffffffffffffffffffffffffffffffffffffffff16908060020154908060030154908060040154908060050154908060060154908060070154908060080160009054906101000a900460ff16905089565b600d6020528060005260406000206000915090505481565b6000602060ff16111515620026eb576040517f08c379a00000000000000000000000000000000000000000000000000000000081526004018080602001828103825260198152602001807f596f75206d75737420737065636966792074686520747970650000000000000081525060200191505060405180910390fd5b6009600084815260200190815260200160002060009054906101000a900460ff16151562002765576040517f08c379a000000000000000000000000000000000000000000000000000000000815260040180806020018281038252602481526020018062005a646024913960400191505060405180910390fd5b6009600083815260200190815260200160002060009054906101000a900460ff161515620027df576040517f08c379a000000000000000000000000000000000000000000000000000000000815260040180806020018281038252602581526020018062005b6e6025913960400191505060405180910390fd5b6000811115156200283c576040517f08c379a000000000000000000000000000000000000000000000000000000000815260040180806020018281038252602c81526020018062005c04602c913960400191505060405180910390fd5b620028488383620041e4565b1515620028bd576040517f08c379a000000000000000000000000000000000000000000000000000000000815260040180806020018281038252601d8152602001807f5468652070616972206d75737420626520612076616c6964207061697200000081525060200191505060405180910390fd5b60608060008090507f627579000000000000000000000000000000000000000000000000000000000087141562002a7d57600180549050604051908082528060200260200182016040528015620029235781602001602082028038833980820191505090505b5092506001805490506040519080825280602002602001820160405280156200295b5781602001602082028038833980820191505090505b50915060008090505b60018054905081101562002a76576001818154811015156200298257fe5b9060005260206000209060090201600001548482815181101515620029a357fe5b906020019060200201818152505084600182815481101515620029c257fe5b9060005260206000209060090201600501548301111562002a03578185038382815181101515620029ef57fe5b906020019060200201818152505062002a76565b60018181548110151562002a1357fe5b9060005260206000209060090201600501548201915060018181548110151562002a3957fe5b906000526020600020906009020160050154838281518110151562002a5a57fe5b9060200190602002018181525050808060010191505062002964565b5062002c07565b60008054905060405190808252806020026020018201604052801562002ab25781602001602082028038833980820191505090505b50925060008054905060405190808252806020026020018201604052801562002aea5781602001602082028038833980820191505090505b50915060008090505b60008054905081101562002c055760008181548110151562002b1157fe5b906000526020600020906009020160000154848281518110151562002b3257fe5b90602001906020020181815250508460008281548110151562002b5157fe5b9060005260206000209060090201600501548301111562002b9257818503838281518110151562002b7e57fe5b906020019060200201818152505062002c05565b60008181548110151562002ba257fe5b9060005260206000209060090201600501548201915060008181548110151562002bc857fe5b906000526020600020906009020160050154838281518110151562002be957fe5b9060200190602002018181525050808060010191505062002af3565b505b60008090505b835181101562003c4b5762002c2162004ff6565b600c6000868481518110151562002c3457fe5b9060200190602002015181526020019081526020016000206101206040519081016040529081600082015481526020016001820160009054906101000a900473ffffffffffffffffffffffffffffffffffffffff1673ffffffffffffffffffffffffffffffffffffffff1673ffffffffffffffffffffffffffffffffffffffff1681526020016002820154815260200160038201548152602001600482015481526020016005820154815260200160068201548152602001600782015481526020016008820160009054906101000a900460ff16600181111562002d1457fe5b600181111562002d2057fe5b8152505090508060a00151848381518110151562002d3a57fe5b90602001906020020151141562002e5b576001816101000190600181111562002d5f57fe5b9081600181111562002d6d57fe5b81525050600281908060018154018082558091505090600182039060005260206000209060090201600090919290919091506000820151816000015560208201518160010160006101000a81548173ffffffffffffffffffffffffffffffffffffffff021916908373ffffffffffffffffffffffffffffffffffffffff16021790555060408201518160020155606082015181600301556080820151816004015560a0820151816005015560c0820151816006015560e082015181600701556101008201518160080160006101000a81548160ff0219169083600181111562002e5257fe5b02179055505050505b838281518110151562002e6a57fe5b906020019060200201518160a001818151039150818152505080600c6000836000015181526020019081526020016000206000820151816000015560208201518160010160006101000a81548173ffffffffffffffffffffffffffffffffffffffff021916908373ffffffffffffffffffffffffffffffffffffffff16021790555060408201518160020155606082015181600301556080820151816004015560a0820151816005015560c0820151816006015560e082015181600701556101008201518160080160006101000a81548160ff0219169083600181111562002f4e57fe5b02179055509050507f6275790000000000000000000000000000000000000000000000000000000000891415620035e057600f6000826020015173ffffffffffffffffffffffffffffffffffffffff1673ffffffffffffffffffffffffffffffffffffffff16815260200190815260200160002060009054906101000a900473ffffffffffffffffffffffffffffffffffffffff1673ffffffffffffffffffffffffffffffffffffffff1663a64b6e5f600b60008b815260200190815260200160002060009054906101000a900473ffffffffffffffffffffffffffffffffffffffff163387868151811015156200304257fe5b906020019060200201516040518463ffffffff167c0100000000000000000000000000000000000000000000000000000000028152600401808473ffffffffffffffffffffffffffffffffffffffff1673ffffffffffffffffffffffffffffffffffffffff1681526020018373ffffffffffffffffffffffffffffffffffffffff1673ffffffffffffffffffffffffffffffffffffffff1681526020018281526020019350505050600060405180830381600087803b1580156200310557600080fd5b505af11580156200311a573d6000803e3d6000fd5b50505050600f60003373ffffffffffffffffffffffffffffffffffffffff1673ffffffffffffffffffffffffffffffffffffffff16815260200190815260200160002060009054906101000a900473ffffffffffffffffffffffffffffffffffffffff1673ffffffffffffffffffffffffffffffffffffffff1663a64b6e5f600b60008a815260200190815260200160002060009054906101000a900473ffffffffffffffffffffffffffffffffffffffff1683602001518460c001518887815181101515620031e657fe5b90602001906020020151026040518463ffffffff167c0100000000000000000000000000000000000000000000000000000000028152600401808473ffffffffffffffffffffffffffffffffffffffff1673ffffffffffffffffffffffffffffffffffffffff1681526020018373ffffffffffffffffffffffffffffffffffffffff1673ffffffffffffffffffffffffffffffffffffffff1681526020018281526020019350505050600060405180830381600087803b158015620032aa57600080fd5b505af1158015620032bf573d6000803e3d6000fd5b50505050806001600e60008460000151815260200190815260200160002054815481101515620032eb57fe5b90600052602060002090600902016000820151816000015560208201518160010160006101000a81548173ffffffffffffffffffffffffffffffffffffffff021916908373ffffffffffffffffffffffffffffffffffffffff16021790555060408201518160020155606082015181600301556080820151816004015560a0820151816005015560c0820151816006015560e082015181600701556101008201518160080160006101000a81548160ff02191690836001811115620033ac57fe5b02179055509050503373ffffffffffffffffffffffffffffffffffffffff16600f6000836020015173ffffffffffffffffffffffffffffffffffffffff1673ffffffffffffffffffffffffffffffffffffffff16815260200190815260200160002060009054906101000a900473ffffffffffffffffffffffffffffffffffffffff1673ffffffffffffffffffffffffffffffffffffffff167fc6c91f7a4774dcb66be4d0dafc2fe6d1bf3ae288057273c21f90989508ee9a318a87868151811015156200347657fe5b9060200190602002015160405180807f73656c6c000000000000000000000000000000000000000000000000000000008152506020018381526020018281526020019250505060405180910390a3806020015173ffffffffffffffffffffffffffffffffffffffff16600f60003373ffffffffffffffffffffffffffffffffffffffff1673ffffffffffffffffffffffffffffffffffffffff16815260200190815260200160002060009054906101000a900473ffffffffffffffffffffffffffffffffffffffff1673ffffffffffffffffffffffffffffffffffffffff167fc6c91f7a4774dcb66be4d0dafc2fe6d1bf3ae288057273c21f90989508ee9a31898460c0015188878151811015156200358b57fe5b906020019060200201510260405180807f62757900000000000000000000000000000000000000000000000000000000008152506020018381526020018281526020019250505060405180910390a362003c3c565b600f6000826020015173ffffffffffffffffffffffffffffffffffffffff1673ffffffffffffffffffffffffffffffffffffffff16815260200190815260200160002060009054906101000a900473ffffffffffffffffffffffffffffffffffffffff1673ffffffffffffffffffffffffffffffffffffffff1663a64b6e5f600b60008a815260200190815260200160002060009054906101000a900473ffffffffffffffffffffffffffffffffffffffff16338460c001518887815181101515620036a857fe5b90602001906020020151026040518463ffffffff167c0100000000000000000000000000000000000000000000000000000000028152600401808473ffffffffffffffffffffffffffffffffffffffff1673ffffffffffffffffffffffffffffffffffffffff1681526020018373ffffffffffffffffffffffffffffffffffffffff1673ffffffffffffffffffffffffffffffffffffffff1681526020018281526020019350505050600060405180830381600087803b1580156200376c57600080fd5b505af115801562003781573d6000803e3d6000fd5b50505050600f60003373ffffffffffffffffffffffffffffffffffffffff1673ffffffffffffffffffffffffffffffffffffffff16815260200190815260200160002060009054906101000a900473ffffffffffffffffffffffffffffffffffffffff1673ffffffffffffffffffffffffffffffffffffffff1663a64b6e5f600b60008b815260200190815260200160002060009054906101000a900473ffffffffffffffffffffffffffffffffffffffff16836020015187868151811015156200384857fe5b906020019060200201516040518463ffffffff167c0100000000000000000000000000000000000000000000000000000000028152600401808473ffffffffffffffffffffffffffffffffffffffff1673ffffffffffffffffffffffffffffffffffffffff1681526020018373ffffffffffffffffffffffffffffffffffffffff1673ffffffffffffffffffffffffffffffffffffffff1681526020018281526020019350505050600060405180830381600087803b1580156200390b57600080fd5b505af115801562003920573d6000803e3d6000fd5b50505050806000600d600084600001518152602001908152602001600020548154811015156200394c57fe5b90600052602060002090600902016000820151816000015560208201518160010160006101000a81548173ffffffffffffffffffffffffffffffffffffffff021916908373ffffffffffffffffffffffffffffffffffffffff16021790555060408201518160020155606082015181600301556080820151816004015560a0820151816005015560c0820151816006015560e082015181600701556101008201518160080160006101000a81548160ff0219169083600181111562003a0d57fe5b02179055509050503373ffffffffffffffffffffffffffffffffffffffff16600f6000836020015173ffffffffffffffffffffffffffffffffffffffff1673ffffffffffffffffffffffffffffffffffffffff16815260200190815260200160002060009054906101000a900473ffffffffffffffffffffffffffffffffffffffff1673ffffffffffffffffffffffffffffffffffffffff167fc6c91f7a4774dcb66be4d0dafc2fe6d1bf3ae288057273c21f90989508ee9a31898460c00151888781518110151562003adc57fe5b906020019060200201510260405180807f62757900000000000000000000000000000000000000000000000000000000008152506020018381526020018281526020019250505060405180910390a3806020015173ffffffffffffffffffffffffffffffffffffffff16600f60003373ffffffffffffffffffffffffffffffffffffffff1673ffffffffffffffffffffffffffffffffffffffff16815260200190815260200160002060009054906101000a900473ffffffffffffffffffffffffffffffffffffffff1673ffffffffffffffffffffffffffffffffffffffff167fc6c91f7a4774dcb66be4d0dafc2fe6d1bf3ae288057273c21f90989508ee9a318a878681518110151562003bed57fe5b9060200190602002015160405180807f73656c6c000000000000000000000000000000000000000000000000000000008152506020018381526020018281526020019250505060405180910390a35b50808060010191505062002c0d565b5050505050505050565b60068181548110151562003c6557fe5b906000526020600020016000915090505481565b60086020528060005260406000206000915054906101000a900460ff1681565b6060807f73656c6c0000000000000000000000000000000000000000000000000000000083141562003df4576001805480602002602001604051908101604052809291908181526020016000905b8282101562003de857838290600052602060002090600902016101206040519081016040529081600082015481526020016001820160009054906101000a900473ffffffffffffffffffffffffffffffffffffffff1673ffffffffffffffffffffffffffffffffffffffff1673ffffffffffffffffffffffffffffffffffffffff1681526020016002820154815260200160038201548152602001600482015481526020016005820154815260200160068201548152602001600782015481526020016008820160009054906101000a900460ff16600181111562003dc857fe5b600181111562003dd457fe5b815250508152602001906001019062003ce7565b50505050905062003f1e565b6000805480602002602001604051908101604052809291908181526020016000905b8282101562003f1757838290600052602060002090600902016101206040519081016040529081600082015481526020016001820160009054906101000a900473ffffffffffffffffffffffffffffffffffffffff1673ffffffffffffffffffffffffffffffffffffffff1673ffffffffffffffffffffffffffffffffffffffff1681526020016002820154815260200160038201548152602001600482015481526020016005820154815260200160068201548152602001600782015481526020016008820160009054906101000a900460ff16600181111562003ef757fe5b600181111562003f0357fe5b815250508152602001906001019062003e16565b5050505090505b60008151905060608160405190808252806020026020018201604052801562003f565781602001602082028038833980820191505090505b509050600080905060008090505b83811015620041d1576000858281518110151562003f7e57fe5b9060200190602002015160a001511115620041c35760006001820190505b848110156200417f577f6275790000000000000000000000000000000000000000000000000000000000881480156200400c5750858181518110151562003fdf57fe5b9060200190602002015160c00151868381518110151562003ffc57fe5b9060200190602002015160c00151115b156200408b576200401c62004ff6565b86838151811015156200402b57fe5b90602001906020020151905086828151811015156200404657fe5b9060200190602002015187848151811015156200405f57fe5b906020019060200201819052508087838151811015156200407c57fe5b90602001906020020181905250505b7f73656c6c0000000000000000000000000000000000000000000000000000000088148015620040f257508581815181101515620040c557fe5b9060200190602002015160c001518683815181101515620040e257fe5b9060200190602002015160c00151105b1562004171576200410262004ff6565b86838151811015156200411157fe5b90602001906020020151905086828151811015156200412c57fe5b9060200190602002015187848151811015156200414557fe5b906020019060200201819052508087838151811015156200416257fe5b90602001906020020181905250505b808060010191505062003f9c565b5084818151811015156200418f57fe5b90602001906020020151600001518383815181101515620041ac57fe5b906020019060200201818152505081806001019250505b808060010191505062003f64565b5081945050505050919050565b60035481565b60006060600a60008581526020019081526020016000208054806020026020016040519081016040528092919081815260200182805480156200424757602002820191906000526020600020905b81548152602001906001019080831162004232575b5050505050905060008090505b815181101562004299578382828151811015156200426e57fe5b9060200190602002015114156200428b57600192505050620042a0565b808060010191505062004254565b5060009150505b92915050565b6000600f60003373ffffffffffffffffffffffffffffffffffffffff1673ffffffffffffffffffffffffffffffffffffffff16815260200190815260200160002060009054906101000a900473ffffffffffffffffffffffffffffffffffffffff1690506000600b600087815260200190815260200160002060009054906101000a900473ffffffffffffffffffffffffffffffffffffffff1690506000600b600087815260200190815260200160002060009054906101000a900473ffffffffffffffffffffffffffffffffffffffff169050600073ffffffffffffffffffffffffffffffffffffffff168273ffffffffffffffffffffffffffffffffffffffff161415151562004404576040517f08c379a000000000000000000000000000000000000000000000000000000000815260040180806020018281038252602981526020018062005b936029913960400191505060405180910390fd5b600073ffffffffffffffffffffffffffffffffffffffff168173ffffffffffffffffffffffffffffffffffffffff16141515156200448e576040517f08c379a000000000000000000000000000000000000000000000000000000000815260040180806020018281038252602a81526020018062005a88602a913960400191505060405180910390fd5b6009600088815260200190815260200160002060009054906101000a900460ff16151562004508576040517f08c379a000000000000000000000000000000000000000000000000000000000815260040180806020018281038252603581526020018062005b0a6035913960400191505060405180910390fd5b6009600087815260200190815260200160002060009054906101000a900460ff16151562004582576040517f08c379a000000000000000000000000000000000000000000000000000000000815260040180806020018281038252603681526020018062005d206036913960400191505060405180910390fd5b600073ffffffffffffffffffffffffffffffffffffffff168373ffffffffffffffffffffffffffffffffffffffff16141515156200460c576040517f08c379a000000000000000000000000000000000000000000000000000000000815260040180806020018281038252604781526020018062005dd66047913960600191505060405180910390fd5b620046188787620041e4565b15156200468d576040517f08c379a000000000000000000000000000000000000000000000000000000000815260040180806020018281038252601d8152602001807f5468652070616972206d75737420626520612076616c6964207061697200000081525060200191505060405180910390fd5b6200469762004ff6565b6101206040519081016040528060035481526020013373ffffffffffffffffffffffffffffffffffffffff1681526020018a815260200189815260200188815260200187815260200186815260200142815260200160006001811115620046fa57fe5b815250905080600c600060035481526020019081526020016000206000820151816000015560208201518160010160006101000a81548173ffffffffffffffffffffffffffffffffffffffff021916908373ffffffffffffffffffffffffffffffffffffffff16021790555060408201518160020155606082015181600301556080820151816004015560a0820151816005015560c0820151816006015560e082015181600701556101008201518160080160006101000a81548160ff02191690836001811115620047c857fe5b02179055509050507f627579000000000000000000000000000000000000000000000000000000000089141562004beb57858273ffffffffffffffffffffffffffffffffffffffff166370a08231866040518263ffffffff167c0100000000000000000000000000000000000000000000000000000000028152600401808273ffffffffffffffffffffffffffffffffffffffff1673ffffffffffffffffffffffffffffffffffffffff16815260200191505060206040518083038186803b1580156200489457600080fd5b505afa158015620048a9573d6000803e3d6000fd5b505050506040513d6020811015620048c057600080fd5b8101908080519060200190929190505050101515156200492c576040517f08c379a000000000000000000000000000000000000000000000000000000000815260040180806020018281038252605881526020018062005d566058913960600191505060405180910390fd5b600081908060018154018082558091505090600182039060005260206000209060090201600090919290919091506000820151816000015560208201518160010160006101000a81548173ffffffffffffffffffffffffffffffffffffffff021916908373ffffffffffffffffffffffffffffffffffffffff16021790555060408201518160020155606082015181600301556080820151816004015560a0820151816005015560c0820151816006015560e082015181600701556101008201518160080160006101000a81548160ff0219169083600181111562004a0d57fe5b0217905550505050606062004a427f627579000000000000000000000000000000000000000000000000000000000062003c99565b905060008062004a539190620050ce565b805160008162004a649190620050f4565b5060008090505b815181101562004be357600c6000838381518110151562004a8857fe5b90602001906020020151815260200190815260200160002060008281548110151562004ab057fe5b9060005260206000209060090201600082015481600001556001820160009054906101000a900473ffffffffffffffffffffffffffffffffffffffff168160010160006101000a81548173ffffffffffffffffffffffffffffffffffffffff021916908373ffffffffffffffffffffffffffffffffffffffff1602179055506002820154816002015560038201548160030155600482015481600401556005820154816005015560068201548160060155600782015481600701556008820160009054906101000a900460ff168160080160006101000a81548160ff0219169083600181111562004b9d57fe5b021790555090505080600d6000848481518110151562004bb957fe5b90602001906020020151815260200190815260200160002081905550808060010191505062004a6b565b505062004fd9565b858373ffffffffffffffffffffffffffffffffffffffff166370a08231866040518263ffffffff167c0100000000000000000000000000000000000000000000000000000000028152600401808273ffffffffffffffffffffffffffffffffffffffff1673ffffffffffffffffffffffffffffffffffffffff16815260200191505060206040518083038186803b15801562004c8657600080fd5b505afa15801562004c9b573d6000803e3d6000fd5b505050506040513d602081101562004cb257600080fd5b81019080805190602001909291905050501015151562004d1e576040517f08c379a000000000000000000000000000000000000000000000000000000000815260040180806020018281038252605881526020018062005c306058913960600191505060405180910390fd5b600181908060018154018082558091505090600182039060005260206000209060090201600090919290919091506000820151816000015560208201518160010160006101000a81548173ffffffffffffffffffffffffffffffffffffffff021916908373ffffffffffffffffffffffffffffffffffffffff16021790555060408201518160020155606082015181600301556080820151816004015560a0820151816005015560c0820151816006015560e082015181600701556101008201518160080160006101000a81548160ff0219169083600181111562004dff57fe5b0217905550505050606062004e347f73656c6c0000000000000000000000000000000000000000000000000000000062003c99565b90506001600062004e469190620050ce565b805160018162004e579190620050f4565b5060008090505b815181101562004fd657600c6000838381518110151562004e7b57fe5b90602001906020020151815260200190815260200160002060018281548110151562004ea357fe5b9060005260206000209060090201600082015481600001556001820160009054906101000a900473ffffffffffffffffffffffffffffffffffffffff168160010160006101000a81548173ffffffffffffffffffffffffffffffffffffffff021916908373ffffffffffffffffffffffffffffffffffffffff1602179055506002820154816002015560038201548160030155600482015481600401556005820154816005015560068201548160060155600782015481600701556008820160009054906101000a900460ff168160080160006101000a81548160ff0219169083600181111562004f9057fe5b021790555090505080600e6000848481518110151562004fac57fe5b90602001906020020151815260200190815260200160002081905550808060010191505062004e5e565b50505b600360008154809291906001019190505550505050505050505050565b6101206040519081016040528060008152602001600073ffffffffffffffffffffffffffffffffffffffff168152602001600080191681526020016000801916815260200160008019168152602001600081526020016000815260200160008152602001600060018111156200506857fe5b81525090565b828054828255906000526020600020908101928215620050ad579160200282015b82811115620050ac5782518255916020019190600101906200508f565b5b509050620050bc919062005129565b5090565b61087d80620051e783390190565b5080546000825560090290600052602060002090810190620050f1919062005151565b50565b815481835581811115620051245760090281600902836000526020600020918201910162005123919062005151565b5b505050565b6200514e91905b808211156200514a57600081600090555060010162005130565b5090565b90565b620051e391905b80821115620051df576000808201600090556001820160006101000a81549073ffffffffffffffffffffffffffffffffffffffff02191690556002820160009055600382016000905560048201600090556005820160009055600682016000905560078201600090556008820160006101000a81549060ff02191690555060090162005158565b5090565b9056fe608060405234801561001057600080fd5b5060405160208061087d8339810180604052602081101561003057600080fd5b8101908080519060200190929190505050600073ffffffffffffffffffffffffffffffffffffffff168173ffffffffffffffffffffffffffffffffffffffff16141515156100e6576040517f08c379a000000000000000000000000000000000000000000000000000000000815260040180806020018281038252601d8152602001807f546865206f776e65722061646472657373206d7573742062652073657400000081525060200191505060405180910390fd5b806000806101000a81548173ffffffffffffffffffffffffffffffffffffffff021916908373ffffffffffffffffffffffffffffffffffffffff16021790555050610747806101366000396000f3fe608060405234801561001057600080fd5b506004361061005e576000357c010000000000000000000000000000000000000000000000000000000090048063126cbe60146100635780638da5cb5b146100bb578063a64b6e5f14610105575b600080fd5b6100a56004803603602081101561007957600080fd5b81019080803573ffffffffffffffffffffffffffffffffffffffff169060200190929190505050610173565b6040518082815260200191505060405180910390f35b6100c36102f4565b604051808273ffffffffffffffffffffffffffffffffffffffff1673ffffffffffffffffffffffffffffffffffffffff16815260200191505060405180910390f35b6101716004803603606081101561011b57600080fd5b81019080803573ffffffffffffffffffffffffffffffffffffffff169060200190929190803573ffffffffffffffffffffffffffffffffffffffff16906020019092919080359060200190929190505050610319565b005b60008073ffffffffffffffffffffffffffffffffffffffff168273ffffffffffffffffffffffffffffffffffffffff1614151515610219576040517f08c379a000000000000000000000000000000000000000000000000000000000815260040180806020018281038252601d8152602001807f54686520746f6b656e2061646472657373206d7573742062652073657400000081525060200191505060405180910390fd5b8173ffffffffffffffffffffffffffffffffffffffff166370a08231306040518263ffffffff167c0100000000000000000000000000000000000000000000000000000000028152600401808273ffffffffffffffffffffffffffffffffffffffff1673ffffffffffffffffffffffffffffffffffffffff16815260200191505060206040518083038186803b1580156102b257600080fd5b505afa1580156102c6573d6000803e3d6000fd5b505050506040513d60208110156102dc57600080fd5b81019080805190602001909291905050509050919050565b6000809054906101000a900473ffffffffffffffffffffffffffffffffffffffff1681565b6000809054906101000a900473ffffffffffffffffffffffffffffffffffffffff1673ffffffffffffffffffffffffffffffffffffffff163373ffffffffffffffffffffffffffffffffffffffff161415156103c0576040517f08c379a000000000000000000000000000000000000000000000000000000000815260040180806020018281038252602e8152602001806106bd602e913960400191505060405180910390fd5b600073ffffffffffffffffffffffffffffffffffffffff168373ffffffffffffffffffffffffffffffffffffffff1614151515610465576040517f08c379a000000000000000000000000000000000000000000000000000000000815260040180806020018281038252601d8152602001807f54686520746f6b656e2061646472657373206d7573742062652073657400000081525060200191505060405180910390fd5b600073ffffffffffffffffffffffffffffffffffffffff168273ffffffffffffffffffffffffffffffffffffffff161415151561050a576040517f08c379a00000000000000000000000000000000000000000000000000000000081526004018080602001828103825260208152602001807f5468652072656365697665722061646472657373206d7573742062652073657481525060200191505060405180910390fd5b600081111515610565576040517f08c379a00000000000000000000000000000000000000000000000000000000081526004018080602001828103825260318152602001806106eb6031913960400191505060405180910390fd5b8273ffffffffffffffffffffffffffffffffffffffff1663a9059cbb83836040518363ffffffff167c0100000000000000000000000000000000000000000000000000000000028152600401808373ffffffffffffffffffffffffffffffffffffffff1673ffffffffffffffffffffffffffffffffffffffff16815260200182815260200192505050602060405180830381600087803b15801561060857600080fd5b505af115801561061c573d6000803e3d6000fd5b505050506040513d602081101561063257600080fd5b810190808051906020019092919050505015156106b7576040517f08c379a000000000000000000000000000000000000000000000000000000000815260040180806020018281038252601f8152602001807f546865207472616e73666572206d757374206265207375636365737366756c0081525060200191505060405180910390fd5b50505056fe596f75206d75737420626520746865206f776e657220746f206578656375746520746861742066756e6374696f6e596f75206d75737420737065636966792074686520616d6f756e74206f6620746f6b656e7320746f207472616e73666572a165627a7a7230582050a8f0a185611e7d39ca67fc4ceb1358d670e77f58dd133bc0acba43f7cc96d200295468652066697273742073796d626f6c206d7573742062652077686974656c6973746564546865207365636f6e642073796d626f6c20686173206e6f74206265656e2077686974656c6973746564596f75206d7573742073656e64207468652073616d65206e756d626572206f662061646472657373657320616e642073796d626f6c73596f75206d75737420737065636966792074686520746f6b656e20616464726573735468652066697273742073796d626f6c206d7573742062652077686974656c697374656420746f2074726164652077697468206974596f75206d75737420737065636966792074686520746f6b656e206164647265737320746f2077686974656c697374546865207365636f6e642073796d626f6c206d7573742062652077686974656c69737465645468652066697273742073796d626f6c20686173206e6f74206265656e2077686974656c6973746564596f75206d75737420617070726f7665282920746865207175616e74697479206f6620746f6b656e73207468617420796f752077616e7420746f206465706f736974206669727374596f75206d757374207370656369667920746865207175616e7469747920746f20627579206f722073656c6c596f75206d757374206861766520656e6f75676820666972737420746f6b656e2066756e647320696e20796f757220657363726f7720636f6e747261637420746f2063726561746520746869732073656c6c206f72646572596f75206d7573742073656e6420736f6d6520746f6b656e7320776974682074686973206465706f7369742066756e6374696f6e54686520746f6b656e206164647265737320737065636966696564206973206e6f7420612076616c696420455243323020746f6b656e5468652073656e646572206d75737420626520746865206f776e657220666f7220746869732066756e6374696f6e546865207365636f6e642073796d626f6c206d7573742062652077686974656c697374656420746f2074726164652077697468206974596f75206d757374206861766520656e6f756768207365636f6e6420746f6b656e2066756e647320696e20796f757220657363726f7720636f6e747261637420746f20637265617465207468697320627579206f7264657254686520746f6b656e20746f206465706f736974206d7573742062652077686974656c6973746564596f75206d757374206465706f73697420736f6d6520746f6b656e73206265666f7265206372656174696e67206f72646572732c20757365206465706f736974546f6b656e2829a165627a7a7230582053edfed6c30e4ff742e6a23b35b32b6e577f02a1e14cc8af0474590caf95790f0029",
  "source": "// We need a system that allows people to trade different pairs of ERC20 tokens. Only approved tokens will be tradable since we don't want to clutter the system with an endless list of unused tokens. As a proof of concept, we'll trade only ETH - HYDRO since hydro is a famous ERC20 token that has a test token available outside the mainnet in rinkeby.\n\n// Functions that we need:\n/*\n    1. Constructor to setup the owner\n    2. Fallback non-payable function to reject ETH from direct transfers since we only want people to use the functions designed to trade a specific pair\n    3. Function to extract tokens from this contract in case someone mistakenly sends ERC20 to the wrong function\n    4. Function to create whitelist a token by the owner\n    5. Function to create market orders\n    6. Function to create limit orders\n */\n\npragma solidity ^0.5.4;\n\nimport './Escrow.sol';\n\ncontract DAX {\n    event TransferOrder(bytes32 _type, address indexed from, address indexed to, bytes32 tokenSymbol, uint256 quantity);\n    enum OrderState {OPEN, CLOSED}\n\n    struct Order {\n        uint256 id;\n        address owner;\n        bytes32 orderType;\n        bytes32 firstSymbol;\n        bytes32 secondSymbol;\n        uint256 quantity;\n        uint256 price;\n        uint256 timestamp;\n        OrderState state;\n    }\n\n    Order[] public buyOrders;\n    Order[] public sellOrders;\n    Order[] public closedOrders;\n    uint256 public orderIdCounter;\n    address public owner;\n    address[] public whitelistedTokens;\n    bytes32[] public whitelistedTokenSymbols;\n    address[] public users;\n\n    // Token address => isWhitelisted or not\n    mapping(address => bool) public isTokenWhitelisted;\n    mapping(bytes32 => bool) public isTokenSymbolWhitelisted;\n    mapping(bytes32 => bytes32[]) public tokenPairs; // A token symbol pair made of 'FIRST' => 'SECOND'\n    mapping(bytes32 => address) public tokenAddressBySymbol; // Symbol => address of the token\n    mapping(uint256 => Order) public orderById; // Id => trade object\n    mapping(uint256 => uint256) public buyOrderIndexById; // Id => index inside the buyOrders array\n    mapping(uint256 => uint256) public sellOrderIndexById; // Id => index inside the sellOrders array\n    mapping(address => address) public escrowByUserAddress; // User address => escrow contract address\n\n    modifier onlyOwner {\n        require(msg.sender == owner, 'The sender must be the owner for this function');\n        _;\n    }\n\n    /// @notice Users should not send ether to this contract\n    function () external {\n        revert();\n    }\n\n    constructor () public {\n        owner = msg.sender;\n    }\n\n    /// @notice To whitelist a token so that is tradable in the exchange\n    /// @dev If the transaction reverts, it could be because of the quantity of token pairs, try reducing the number and breaking the transaction into several pieces\n    /// @param _symbol The symbol of the token\n    /// @param _token The token to whitelist, for instance 'TOK'\n    /// @param _tokenPairSymbols The token pairs to whitelist for this new token, for instance: ['BAT', 'HYDRO'] which will be converted to ['TOK', 'BAT'] and ['TOK', 'HYDRO']\n    /// @param _tokenPairAddresses The token pair addresses to whitelist for this new token, for instance: ['0x213...', '0x927...', '0x128...']\n    function whitelistToken(bytes32 _symbol, address _token, bytes32[] memory _tokenPairSymbols, address[] memory _tokenPairAddresses) public onlyOwner {\n        require(_token != address(0), 'You must specify the token address to whitelist');\n        require(IERC20(_token).totalSupply() > 0, 'The token address specified is not a valid ERC20 token');\n        require(_tokenPairAddresses.length == _tokenPairSymbols.length, 'You must send the same number of addresses and symbols');\n\n        isTokenWhitelisted[_token] = true;\n        isTokenSymbolWhitelisted[_symbol] = true;\n        whitelistedTokens.push(_token);\n        whitelistedTokenSymbols.push(_symbol);\n        tokenAddressBySymbol[_symbol] = _token;\n        tokenPairs[_symbol] = _tokenPairSymbols;\n\n        for(uint256 i = 0; i < _tokenPairAddresses.length; i++) {\n            address currentAddress = _tokenPairAddresses[i];\n            bytes32 currentSymbol = _tokenPairSymbols[i];\n            tokenPairs[currentSymbol].push(_symbol);\n            if(!isTokenWhitelisted[currentAddress]) {\n                isTokenWhitelisted[currentAddress] = true;\n                isTokenSymbolWhitelisted[currentSymbol] = true;\n                whitelistedTokens.push(currentAddress);\n                whitelistedTokenSymbols.push(currentSymbol);\n                tokenAddressBySymbol[currentSymbol] = currentAddress;\n            }\n        }\n    }\n\n    /// @notice To store tokens inside the escrow contract associated with the user accounts as long as the users made an approval beforehand\n    /// @dev It will revert is the user doesn't approve tokens beforehand to this contract\n    /// @param _token The token address\n    /// @param _amount The quantity to deposit to the escrow contracc\n    function depositTokens(address _token, uint256 _amount) public {\n        require(isTokenWhitelisted[_token], 'The token to deposit must be whitelisted');\n        require(_token != address(0), 'You must specify the token address');\n        require(_amount > 0, 'You must send some tokens with this deposit function');\n        require(IERC20(_token).allowance(msg.sender, address(this)) >= _amount, 'You must approve() the quantity of tokens that you want to deposit first');\n        if(escrowByUserAddress[msg.sender] == address(0)) {\n            Escrow newEscrow = new Escrow(address(this));\n            escrowByUserAddress[msg.sender] = address(newEscrow);\n            users.push(msg.sender);\n        }\n        IERC20(_token).transferFrom(msg.sender, escrowByUserAddress[msg.sender], _amount);\n    }\n\n    /// @notice To extract tokens\n    /// @param _token The token address to extract\n    /// @param _amount The amount of tokens to transfer\n    function extractTokens(address _token, uint256 _amount) public {\n        require(_token != address(0), 'You must specify the token address');\n        require(_amount > 0, 'You must send some tokens with this deposit function');\n        Escrow(escrowByUserAddress[msg.sender]).transferTokens(_token, msg.sender, _amount);\n    }\n\n    /// @notice To create a market order by filling one or more existing limit orders at the most profitable price given a token pair, type of order (buy or sell) and the amount of tokens to trade, the _quantity is how many _firstSymbol tokens you want to buy if it's a buy order or how many _firstSymbol tokens you want to sell at market price\n    /// @param _type The type of order either 'buy' or 'sell'\n    /// @param _firstSymbol The first token to buy or sell\n    /// @param _secondSymbol The second token to create a pair\n    /// @param _quantity The amount of tokens to sell or buy\n    function marketOrder(bytes32 _type, bytes32 _firstSymbol, bytes32 _secondSymbol, uint256 _quantity) public {\n        require(_type.length > 0, 'You must specify the type');\n        require(isTokenSymbolWhitelisted[_firstSymbol], 'The first symbol must be whitelisted');\n        require(isTokenSymbolWhitelisted[_secondSymbol], 'The second symbol must be whitelisted');\n        require(_quantity > 0, 'You must specify the quantity to buy or sell');\n        require(checkValidPair(_firstSymbol, _secondSymbol), 'The pair must be a valid pair');\n\n        // Fills the latest market orders up until the _quantity is reached\n        uint256[] memory ordersToFillIds;\n        uint256[] memory quantitiesToFillPerOrder;\n        uint256 currentQuantity = 0;\n        if(_type == 'buy') {\n            ordersToFillIds = new uint256[](sellOrders.length);\n            quantitiesToFillPerOrder = new uint256[](sellOrders.length);\n            // Loop through all the sell orders until we fill the quantity\n            for(uint256 i = 0; i < sellOrders.length; i++) {\n                ordersToFillIds[i] = sellOrders[i].id;\n                if((currentQuantity + sellOrders[i].quantity) > _quantity) {\n                    quantitiesToFillPerOrder[i] =  _quantity - currentQuantity;\n                    break;\n                }\n                currentQuantity += sellOrders[i].quantity;\n                quantitiesToFillPerOrder[i] = sellOrders[i].quantity;\n            }\n        } else {\n            ordersToFillIds = new uint256[](buyOrders.length);\n            quantitiesToFillPerOrder = new uint256[](buyOrders.length);\n            for(uint256 i = 0; i < buyOrders.length; i++) {\n                ordersToFillIds[i] = buyOrders[i].id;\n                if((currentQuantity + buyOrders[i].quantity) > _quantity) {\n                    quantitiesToFillPerOrder[i] =  _quantity - currentQuantity;\n                    break;\n                }\n                currentQuantity += buyOrders[i].quantity;\n                quantitiesToFillPerOrder[i] = buyOrders[i].quantity;\n            }\n        }\n\n        // When the myOrder.type == sell or _type == buy\n        // myOrder.owner send quantityToFill[] of _firstSymbol to msg.sender\n        // msg.sender send quantityToFill[] * myOwner.price of _secondSymbol to myOrder.owner\n\n        // When the myOrder.type == buy or _type == sell\n        // myOrder.owner send quantityToFill[] * myOwner.price of _secondSymbol to msg.sender\n        // msg.sender send quantityToFill[] of _firstSymbol to myOrder.owner\n\n        // Close and fill orders\n        for(uint256 i = 0; i < ordersToFillIds.length; i++) {\n            Order memory myOrder = orderById[ordersToFillIds[i]];\n\n            // If we fill the entire order, mark it as closed\n            if(quantitiesToFillPerOrder[i] == myOrder.quantity) {\n                myOrder.state = OrderState.CLOSED;\n                closedOrders.push(myOrder);\n            }\n            myOrder.quantity -= quantitiesToFillPerOrder[i];\n            orderById[myOrder.id] = myOrder;\n\n            if(_type == 'buy') {\n                // If the limit order is a buy order, send the firstSymbol to the creator of the limit order which is the buyer\n                Escrow(escrowByUserAddress[myOrder.owner]).transferTokens(tokenAddressBySymbol[_firstSymbol], msg.sender, quantitiesToFillPerOrder[i]);\n                Escrow(escrowByUserAddress[msg.sender]).transferTokens(tokenAddressBySymbol[_secondSymbol], myOrder.owner, quantitiesToFillPerOrder[i] * myOrder.price);\n\n                sellOrders[sellOrderIndexById[myOrder.id]] = myOrder;\n\n                emit TransferOrder('sell', escrowByUserAddress[myOrder.owner], msg.sender, _firstSymbol, quantitiesToFillPerOrder[i]);\n                emit TransferOrder('buy', escrowByUserAddress[msg.sender], myOrder.owner, _secondSymbol, quantitiesToFillPerOrder[i] * myOrder.price);\n            } else {\n                // If this is a buy market order or a sell limit order for the opposite, send firstSymbol to the second user\n                Escrow(escrowByUserAddress[myOrder.owner]).transferTokens(tokenAddressBySymbol[_secondSymbol], msg.sender, quantitiesToFillPerOrder[i] * myOrder.price);\n                Escrow(escrowByUserAddress[msg.sender]).transferTokens(tokenAddressBySymbol[_firstSymbol], myOrder.owner, quantitiesToFillPerOrder[i]);\n\n                buyOrders[buyOrderIndexById[myOrder.id]] = myOrder;\n\n                emit TransferOrder('buy', escrowByUserAddress[myOrder.owner], msg.sender, _secondSymbol, quantitiesToFillPerOrder[i] * myOrder.price);\n                emit TransferOrder('sell', escrowByUserAddress[msg.sender], myOrder.owner, _firstSymbol, quantitiesToFillPerOrder[i]);\n            }\n        }\n    }\n\n    /// @notice To create a market order given a token pair, type of order, amount of tokens to trade and the price per token. If the type is buy, the price will determine how many _secondSymbol tokens you are willing to pay for each _firstSymbol up until your _quantity or better if there are more profitable prices. If the type if sell, the price will determine how many _secondSymbol tokens you get for each _firstSymbol\n    /// @param _type The type of order either 'buy' or 'sell'\n    /// @param _firstSymbol The first symbol to deal with\n    /// @param _secondSymbol The second symbol that you want to deal\n    /// @param _quantity How many tokens you want to deal, these are _firstSymbol tokens\n    /// @param _pricePerToken How many tokens you get or pay for your other symbol, the total quantity is _pricePerToken * _quantity\n    function limitOrder(bytes32 _type, bytes32 _firstSymbol, bytes32 _secondSymbol, uint256 _quantity, uint256 _pricePerToken) public {\n        address userEscrow = escrowByUserAddress[msg.sender];\n        address firstSymbolAddress = tokenAddressBySymbol[_firstSymbol];\n        address secondSymbolAddress = tokenAddressBySymbol[_secondSymbol];\n\n        require(firstSymbolAddress != address(0), 'The first symbol has not been whitelisted');\n        require(secondSymbolAddress != address(0), 'The second symbol has not been whitelisted');\n        require(isTokenSymbolWhitelisted[_firstSymbol], 'The first symbol must be whitelisted to trade with it');\n        require(isTokenSymbolWhitelisted[_secondSymbol], 'The second symbol must be whitelisted to trade with it');\n        require(userEscrow != address(0), 'You must deposit some tokens before creating orders, use depositToken()');\n        require(checkValidPair(_firstSymbol, _secondSymbol), 'The pair must be a valid pair');\n\n        Order memory myOrder = Order(orderIdCounter, msg.sender, _type, _firstSymbol, _secondSymbol, _quantity, _pricePerToken, now, OrderState.OPEN);\n        orderById[orderIdCounter] = myOrder;\n        if(_type == 'buy') {\n            // Check that the user has enough of the second symbol if he wants to buy the first symbol at that price\n            require(IERC20(secondSymbolAddress).balanceOf(userEscrow) >= _quantity, 'You must have enough second token funds in your escrow contract to create this buy order');\n\n            buyOrders.push(myOrder);\n\n            // Sort existing orders by price the most efficient way possible, we could optimize even more by creating a buy array for each token\n            uint256[] memory sortedIds = sortIdsByPrices('buy');\n            delete buyOrders;\n            buyOrders.length = sortedIds.length;\n            for(uint256 i = 0; i < sortedIds.length; i++) {\n                buyOrders[i] = orderById[sortedIds[i]];\n                buyOrderIndexById[sortedIds[i]] = i;\n            }\n        } else {\n            // Check that the user has enough of the first symbol if he wants to sell it for the second symbol\n            require(IERC20(firstSymbolAddress).balanceOf(userEscrow) >= _quantity, 'You must have enough first token funds in your escrow contract to create this sell order');\n\n            // Add the new order\n            sellOrders.push(myOrder);\n\n            // Sort existing orders by price the most efficient way possible, we could optimize even more by creating a sell array for each token\n            uint256[] memory sortedIds = sortIdsByPrices('sell');\n            delete sellOrders; // Reset orders\n            sellOrders.length = sortedIds.length;\n            for(uint256 i = 0; i < sortedIds.length; i++) {\n                sellOrders[i] = orderById[sortedIds[i]];\n                sellOrderIndexById[sortedIds[i]] = i;\n            }\n        }\n\n        orderIdCounter++;\n    }\n\n    /// @notice Sorts the selected array of Orders by price from lower to higher if it's a buy order or from highest to lowest if it's a sell order\n    /// @param _type The type of order either 'sell' or 'buy'\n    /// @return uint256[] Returns the sorted ids\n    function sortIdsByPrices(bytes32 _type) public view returns (uint256[] memory) {\n        Order[] memory orders;\n        if(_type == 'sell') orders = sellOrders;\n        else orders = buyOrders;\n\n        uint256 length = orders.length;\n        uint256[] memory orderedIds = new uint256[](length);\n        uint256 lastId = 0;\n        for(uint i = 0; i < length; i++) {\n            if(orders[i].quantity > 0) {\n                for(uint j = i+1; j < length; j++) {\n                    // If it's a buy order, sort from lowest to highest since we want the lowest prices first\n                    if(_type == 'buy' && orders[i].price > orders[j].price) {\n                        Order memory temporaryOrder = orders[i];\n                        orders[i] = orders[j];\n                        orders[j] = temporaryOrder;\n                    }\n                    // If it's a sell order, sort from highest to lowest since we want the highest sell prices first\n                    if(_type == 'sell' && orders[i].price < orders[j].price) {\n                        Order memory temporaryOrder = orders[i];\n                        orders[i] = orders[j];\n                        orders[j] = temporaryOrder;\n                    }\n                }\n                orderedIds[lastId] = orders[i].id;\n                lastId++;\n            }\n        }\n\n        return orderedIds;\n    }\n\n\n    /// @notice Checks if a pair is valid\n    /// @param _firstSymbol The first symbol of the pair\n    /// @param _secondSymbol The second symbol of the pair\n    /// @return bool If the pair is valid or not\n    function checkValidPair(bytes32 _firstSymbol, bytes32 _secondSymbol) public view returns(bool) {\n        bytes32[] memory pairs = tokenPairs[_firstSymbol];\n\n        for(uint256 i = 0; i < pairs.length; i++){\n            if(pairs[i] == _secondSymbol) return true;\n        }\n        return false;\n    }\n\n    /// @notice Returns the token pairs\n    /// @param _token To get the array of token pair for that selected token\n    /// @return bytes32[] An array containing the pairs\n    function getTokenPairs(bytes32 _token) public view returns(bytes32[] memory) {\n        return tokenPairs[_token];\n    }\n\n    /// @notice To get an order from the arrays of orders\n    /// @param _type The type of order to get\n    /// @param _index The index of the order to get\n    /// @return Order The order struct\n    function getOrder(bytes32 _type, uint256 _index) public view returns(uint256, address, bytes32, bytes32, bytes32, uint256, uint256, uint256, OrderState) {\n        Order memory myOrder;\n        if(_type == 'buy') {\n             myOrder = buyOrders[_index];\n        } else if(_type == 'sell') {\n            myOrder = sellOrders[_index];\n        } else if(_type == 'closed') {\n            myOrder = closedOrders[_index];\n        }\n        return (myOrder.id, myOrder.owner, myOrder.orderType, myOrder.firstSymbol, myOrder.secondSymbol, myOrder.quantity, myOrder.price, myOrder.timestamp, myOrder.state);\n    }\n\n    /// @notice To get the length of the specified order array\n    /// @param _type The type of order\n    /// @return uint256 The number of elements inside that order\n    function getOrderLength(bytes32 _type) public view returns(uint256) {\n        if(_type == 'buy') {\n            return buyOrders.length;\n        } else if(_type == 'sell') {\n            return sellOrders.length;\n        } else if(_type == 'closed') {\n            return closedOrders.length;\n        }\n    }\n\n    /// @notice To get all the whitelisted symbols\n    /// @return bytes32[] The array of symbols\n    function getWhitelistedTokenSymbols() public view returns(bytes32[] memory) {\n        return whitelistedTokenSymbols;\n    }\n}\n",
  "sourcePath": "/Users/merunas/Desktop/decentralized-exchange/contracts/DAX.sol",
  "compiler": {
    "name": "solc",
    "version": "0.5.4+commit.9549d8ff.Emscripten.clang"
  },
  "schemaVersion": "3.0.0-beta.2",
  "updatedAt": "2019-03-12T19:04:56.119Z",
  "devdoc": {
    "methods": {
      "checkValidPair(bytes32,bytes32)": {
        "params": {
          "_firstSymbol": "The first symbol of the pair",
          "_secondSymbol": "The second symbol of the pair"
        },
        "return": "bool If the pair is valid or not"
      },
      "depositTokens(address,uint256)": {
        "details": "It will revert is the user doesn't approve tokens beforehand to this contract",
        "params": {
          "_amount": "The quantity to deposit to the escrow contracc",
          "_token": "The token address"
        }
      },
      "extractTokens(address,uint256)": {
        "params": {
          "_amount": "The amount of tokens to transfer",
          "_token": "The token address to extract"
        }
      },
      "getOrder(bytes32,uint256)": {
        "params": {
          "_index": "The index of the order to get",
          "_type": "The type of order to get"
        },
        "return": "Order The order struct"
      },
      "getOrderLength(bytes32)": {
        "params": {
          "_type": "The type of order"
        },
        "return": "uint256 The number of elements inside that order"
      },
      "getTokenPairs(bytes32)": {
        "params": {
          "_token": "To get the array of token pair for that selected token"
        },
        "return": "bytes32[] An array containing the pairs"
      },
      "getWhitelistedTokenSymbols()": {
        "return": "bytes32[] The array of symbols"
      },
      "limitOrder(bytes32,bytes32,bytes32,uint256,uint256)": {
        "params": {
          "_firstSymbol": "The first symbol to deal with",
          "_pricePerToken": "How many tokens you get or pay for your other symbol, the total quantity is _pricePerToken * _quantity",
          "_quantity": "How many tokens you want to deal, these are _firstSymbol tokens",
          "_secondSymbol": "The second symbol that you want to deal",
          "_type": "The type of order either 'buy' or 'sell'"
        }
      },
      "marketOrder(bytes32,bytes32,bytes32,uint256)": {
        "params": {
          "_firstSymbol": "The first token to buy or sell",
          "_quantity": "The amount of tokens to sell or buy",
          "_secondSymbol": "The second token to create a pair",
          "_type": "The type of order either 'buy' or 'sell'"
        }
      },
      "sortIdsByPrices(bytes32)": {
        "params": {
          "_type": "The type of order either 'sell' or 'buy'"
        },
        "return": "uint256[] Returns the sorted ids"
      },
      "whitelistToken(bytes32,address,bytes32[],address[])": {
        "details": "If the transaction reverts, it could be because of the quantity of token pairs, try reducing the number and breaking the transaction into several pieces",
        "params": {
          "_symbol": "The symbol of the token",
          "_token": "The token to whitelist, for instance 'TOK'",
          "_tokenPairAddresses": "The token pair addresses to whitelist for this new token, for instance: ['0x213...', '0x927...', '0x128...']",
          "_tokenPairSymbols": "The token pairs to whitelist for this new token, for instance: ['BAT', 'HYDRO'] which will be converted to ['TOK', 'BAT'] and ['TOK', 'HYDRO']"
        }
      }
    }
  },
  "userdoc": {
    "methods": {
      "checkValidPair(bytes32,bytes32)": {
        "notice": "Checks if a pair is valid"
      },
      "depositTokens(address,uint256)": {
        "notice": "To store tokens inside the escrow contract associated with the user accounts as long as the users made an approval beforehand"
      },
      "extractTokens(address,uint256)": {
        "notice": "To extract tokens"
      },
      "getOrder(bytes32,uint256)": {
        "notice": "To get an order from the arrays of orders"
      },
      "getOrderLength(bytes32)": {
        "notice": "To get the length of the specified order array"
      },
      "getTokenPairs(bytes32)": {
        "notice": "Returns the token pairs"
      },
      "getWhitelistedTokenSymbols()": {
        "notice": "To get all the whitelisted symbols"
      },
      "limitOrder(bytes32,bytes32,bytes32,uint256,uint256)": {
        "notice": "To create a market order given a token pair, type of order, amount of tokens to trade and the price per token. If the type is buy, the price will determine how many _secondSymbol tokens you are willing to pay for each _firstSymbol up until your _quantity or better if there are more profitable prices. If the type if sell, the price will determine how many _secondSymbol tokens you get for each _firstSymbol"
      },
      "marketOrder(bytes32,bytes32,bytes32,uint256)": {
        "notice": "To create a market order by filling one or more existing limit orders at the most profitable price given a token pair, type of order (buy or sell) and the amount of tokens to trade, the _quantity is how many _firstSymbol tokens you want to buy if it's a buy order or how many _firstSymbol tokens you want to sell at market price"
      },
      "sortIdsByPrices(bytes32)": {
        "notice": "Sorts the selected array of Orders by price from lower to higher if it's a buy order or from highest to lowest if it's a sell order"
      },
      "whitelistToken(bytes32,address,bytes32[],address[])": {
        "notice": "To whitelist a token so that is tradable in the exchange"
      }
    }
  }
}