{
  "contractName": "Escrow",
  "abi": [
    {
      "constant": true,
      "inputs": [],
      "name": "owner",
      "outputs": [
        {
          "name": "",
          "type": "address"
        }
      ],
      "payable": false,
      "stateMutability": "view",
      "type": "function"
    },
    {
      "inputs": [
        {
          "name": "_owner",
          "type": "address"
        }
      ],
      "payable": false,
      "stateMutability": "nonpayable",
      "type": "constructor"
    },
    {
      "payable": false,
      "stateMutability": "nonpayable",
      "type": "fallback"
    },
    {
      "constant": false,
      "inputs": [
        {
          "name": "_token",
          "type": "address"
        },
        {
          "name": "_to",
          "type": "address"
        },
        {
          "name": "_amount",
          "type": "uint256"
        }
      ],
      "name": "transferTokens",
      "outputs": [],
      "payable": false,
      "stateMutability": "nonpayable",
      "type": "function"
    },
    {
      "constant": true,
      "inputs": [
        {
          "name": "_token",
          "type": "address"
        }
      ],
      "name": "checkTokenBalance",
      "outputs": [
        {
          "name": "",
          "type": "uint256"
        }
      ],
      "payable": false,
      "stateMutability": "view",
      "type": "function"
    }
  ],
  "bytecode": "0x608060405234801561001057600080fd5b5060405160208061087d8339810180604052602081101561003057600080fd5b8101908080519060200190929190505050600073ffffffffffffffffffffffffffffffffffffffff168173ffffffffffffffffffffffffffffffffffffffff16141515156100e6576040517f08c379a000000000000000000000000000000000000000000000000000000000815260040180806020018281038252601d8152602001807f546865206f776e65722061646472657373206d7573742062652073657400000081525060200191505060405180910390fd5b806000806101000a81548173ffffffffffffffffffffffffffffffffffffffff021916908373ffffffffffffffffffffffffffffffffffffffff16021790555050610747806101366000396000f3fe608060405234801561001057600080fd5b506004361061005e576000357c010000000000000000000000000000000000000000000000000000000090048063126cbe60146100635780638da5cb5b146100bb578063a64b6e5f14610105575b600080fd5b6100a56004803603602081101561007957600080fd5b81019080803573ffffffffffffffffffffffffffffffffffffffff169060200190929190505050610173565b6040518082815260200191505060405180910390f35b6100c36102f4565b604051808273ffffffffffffffffffffffffffffffffffffffff1673ffffffffffffffffffffffffffffffffffffffff16815260200191505060405180910390f35b6101716004803603606081101561011b57600080fd5b81019080803573ffffffffffffffffffffffffffffffffffffffff169060200190929190803573ffffffffffffffffffffffffffffffffffffffff16906020019092919080359060200190929190505050610319565b005b60008073ffffffffffffffffffffffffffffffffffffffff168273ffffffffffffffffffffffffffffffffffffffff1614151515610219576040517f08c379a000000000000000000000000000000000000000000000000000000000815260040180806020018281038252601d8152602001807f54686520746f6b656e2061646472657373206d7573742062652073657400000081525060200191505060405180910390fd5b8173ffffffffffffffffffffffffffffffffffffffff166370a08231306040518263ffffffff167c0100000000000000000000000000000000000000000000000000000000028152600401808273ffffffffffffffffffffffffffffffffffffffff1673ffffffffffffffffffffffffffffffffffffffff16815260200191505060206040518083038186803b1580156102b257600080fd5b505afa1580156102c6573d6000803e3d6000fd5b505050506040513d60208110156102dc57600080fd5b81019080805190602001909291905050509050919050565b6000809054906101000a900473ffffffffffffffffffffffffffffffffffffffff1681565b6000809054906101000a900473ffffffffffffffffffffffffffffffffffffffff1673ffffffffffffffffffffffffffffffffffffffff163373ffffffffffffffffffffffffffffffffffffffff161415156103c0576040517f08c379a000000000000000000000000000000000000000000000000000000000815260040180806020018281038252602e8152602001806106bd602e913960400191505060405180910390fd5b600073ffffffffffffffffffffffffffffffffffffffff168373ffffffffffffffffffffffffffffffffffffffff1614151515610465576040517f08c379a000000000000000000000000000000000000000000000000000000000815260040180806020018281038252601d8152602001807f54686520746f6b656e2061646472657373206d7573742062652073657400000081525060200191505060405180910390fd5b600073ffffffffffffffffffffffffffffffffffffffff168273ffffffffffffffffffffffffffffffffffffffff161415151561050a576040517f08c379a00000000000000000000000000000000000000000000000000000000081526004018080602001828103825260208152602001807f5468652072656365697665722061646472657373206d7573742062652073657481525060200191505060405180910390fd5b600081111515610565576040517f08c379a00000000000000000000000000000000000000000000000000000000081526004018080602001828103825260318152602001806106eb6031913960400191505060405180910390fd5b8273ffffffffffffffffffffffffffffffffffffffff1663a9059cbb83836040518363ffffffff167c0100000000000000000000000000000000000000000000000000000000028152600401808373ffffffffffffffffffffffffffffffffffffffff1673ffffffffffffffffffffffffffffffffffffffff16815260200182815260200192505050602060405180830381600087803b15801561060857600080fd5b505af115801561061c573d6000803e3d6000fd5b505050506040513d602081101561063257600080fd5b810190808051906020019092919050505015156106b7576040517f08c379a000000000000000000000000000000000000000000000000000000000815260040180806020018281038252601f8152602001807f546865207472616e73666572206d757374206265207375636365737366756c0081525060200191505060405180910390fd5b50505056fe596f75206d75737420626520746865206f776e657220746f206578656375746520746861742066756e6374696f6e596f75206d75737420737065636966792074686520616d6f756e74206f6620746f6b656e7320746f207472616e73666572a165627a7a7230582050a8f0a185611e7d39ca67fc4ceb1358d670e77f58dd133bc0acba43f7cc96d20029",
  "source": "pragma solidity 0.5.4;\n\ninterface IERC20 {\n    function transfer(address to, uint256 value) external returns (bool);\n    function approve(address spender, uint256 value) external returns (bool);\n    function transferFrom(address from, address to, uint256 value) external returns (bool);\n    function totalSupply() external view returns (uint256);\n    function balanceOf(address who) external view returns (uint256);\n    function allowance(address owner, address spender) external view returns (uint256);\n    event Transfer(address indexed from, address indexed to, uint256 value);\n    event Approval(address indexed owner, address indexed spender, uint256 value);\n}\n\ncontract Escrow {\n    address public owner;\n\n    modifier onlyOwner {\n        require(msg.sender == owner, 'You must be the owner to execute that function');\n        _;\n    }\n\n    /// @notice This contract does not accept ETH transfers\n    function () external { revert(); }\n\n    /// @notice To setup the initial tokens that the user will store when creating the escrow\n    /// @param _owner The address that will be the owner of this escrow, must be the owner of the tokens\n    constructor (address _owner) public {\n        require(_owner != address(0), 'The owner address must be set');\n        owner = _owner;\n    }\n\n    /// @notice To transfer tokens to another address, usually the buyer or seller of an existing order\n    function transferTokens(address _token, address _to, uint256 _amount) public onlyOwner {\n        require(_token != address(0), 'The token address must be set');\n        require(_to != address(0), 'The receiver address must be set');\n        require(_amount > 0, 'You must specify the amount of tokens to transfer');\n\n        require(IERC20(_token).transfer(_to, _amount), 'The transfer must be successful');\n    }\n\n    /// @notice To see how many of a particular token this contract contains\n    /// @param _token The address of the token to check\n    /// @return uint256 The number of tokens this contract contains\n    function checkTokenBalance(address _token) public view returns(uint256) {\n        require(_token != address(0), 'The token address must be set');\n        return IERC20(_token).balanceOf(address(this));\n    }\n}\n",
  "sourcePath": "/Users/merunas/Desktop/decentralized-exchange/contracts/Escrow.sol",
  "compiler": {
    "name": "solc",
    "version": "0.5.4+commit.9549d8ff.Emscripten.clang"
  },
  "schemaVersion": "3.0.0-beta.2",
  "updatedAt": "2019-03-11T21:07:59.200Z",
  "devdoc": {
    "methods": {
      "checkTokenBalance(address)": {
        "params": {
          "_token": "The address of the token to check"
        },
        "return": "uint256 The number of tokens this contract contains"
      },
      "constructor": {
        "params": {
          "_owner": "The address that will be the owner of this escrow, must be the owner of the tokens"
        }
      }
    }
  },
  "userdoc": {
    "methods": {
      "checkTokenBalance(address)": {
        "notice": "To see how many of a particular token this contract contains"
      },
      "constructor": "To setup the initial tokens that the user will store when creating the escrow",
      "transferTokens(address,address,uint256)": {
        "notice": "To transfer tokens to another address, usually the buyer or seller of an existing order"
      }
    }
  }
}