{
  "contractName": "Oracle",
  "abi": [
    {
      "constant": true,
      "inputs": [],
      "name": "sequence",
      "outputs": [
        {
          "name": "",
          "type": "uint256"
        }
      ],
      "payable": false,
      "stateMutability": "view",
      "type": "function",
      "signature": "0x529d15cc"
    },
    {
      "anonymous": false,
      "inputs": [
        {
          "indexed": false,
          "name": "sequence",
          "type": "uint256"
        },
        {
          "indexed": false,
          "name": "timestamp",
          "type": "uint256"
        }
      ],
      "name": "GenerateRandom",
      "type": "event",
      "signature": "0x1124577e10a9938859db293866a960e232222d0f2048f8dba1f84da8f3edbeea"
    },
    {
      "anonymous": false,
      "inputs": [
        {
          "indexed": false,
          "name": "sequence",
          "type": "uint256"
        },
        {
          "indexed": false,
          "name": "number",
          "type": "uint256"
        }
      ],
      "name": "ShowRandomNumber",
      "type": "event",
      "signature": "0xcec8c659acfc3a53da04d7d265e595176aeef8dc5968ec28ca6bc371e97cdb00"
    },
    {
      "constant": false,
      "inputs": [],
      "name": "generateRandom",
      "outputs": [],
      "payable": false,
      "stateMutability": "nonpayable",
      "type": "function",
      "signature": "0x02e4af01"
    },
    {
      "constant": false,
      "inputs": [
        {
          "name": "_sequence",
          "type": "uint256"
        },
        {
          "name": "generatedNumber",
          "type": "uint256"
        }
      ],
      "name": "__callback",
      "outputs": [],
      "payable": false,
      "stateMutability": "nonpayable",
      "type": "function",
      "signature": "0x3102e5ab"
    }
  ],
  "bytecode": "0x60806040526000805534801561001457600080fd5b5061018b806100246000396000f3fe608060405234801561001057600080fd5b506004361061005e576000357c01000000000000000000000000000000000000000000000000000000009004806302e4af01146100635780633102e5ab1461006d578063529d15cc146100a5575b600080fd5b61006b6100c3565b005b6100a36004803603604081101561008357600080fd5b810190808035906020019092919080359060200190929190505050610116565b005b6100ad610159565b6040518082815260200191505060405180910390f35b7f1124577e10a9938859db293866a960e232222d0f2048f8dba1f84da8f3edbeea60005442604051808381526020018281526020019250505060405180910390a160016000808282540192505081905550565b7fcec8c659acfc3a53da04d7d265e595176aeef8dc5968ec28ca6bc371e97cdb008282604051808381526020018281526020019250505060405180910390a15050565b6000548156fea165627a7a72305820ca6db32c34a6235d917375e13e16b6d944748660e1e71e867355c3f3700ccf470029",
  "source": "pragma solidity 0.5.4;\n\ncontract Oracle {\n    event GenerateRandom(uint256 sequence, uint256 timestamp);\n    event ShowRandomNumber(uint256 sequence, uint256 number);\n    uint256 public sequence = 0;\n\n    function generateRandom() public {\n        emit GenerateRandom(sequence, now);\n        sequence += 1;\n    }\n\n    function __callback(uint256 _sequence, uint256 generatedNumber) public {\n        emit ShowRandomNumber(_sequence, generatedNumber);\n    }\n}\n",
  "sourcePath": "/Users/merunas/Desktop/oracle/contracts/Oracle.sol",
  "compiler": {
    "name": "solc",
    "version": "0.5.4+commit.9549d8ff.Emscripten.clang"
  },
  "schemaVersion": "3.0.0-beta.2",
  "updatedAt": "2019-02-27T09:46:44.881Z",
  "devdoc": {
    "methods": {}
  },
  "userdoc": {
    "methods": {}
  }
}