{
  "contractName": "Ecommerce",
  "abi": [
    {
      "constant": true,
      "inputs": [
        {
          "name": "",
          "type": "uint256"
        }
      ],
      "name": "products",
      "outputs": [
        {
          "name": "id",
          "type": "uint256"
        },
        {
          "name": "title",
          "type": "string"
        },
        {
          "name": "description",
          "type": "string"
        },
        {
          "name": "date",
          "type": "uint256"
        },
        {
          "name": "owner",
          "type": "address"
        },
        {
          "name": "price",
          "type": "uint256"
        },
        {
          "name": "image",
          "type": "string"
        }
      ],
      "payable": false,
      "stateMutability": "view",
      "type": "function",
      "signature": "0x7acc0b20"
    },
    {
      "constant": true,
      "inputs": [
        {
          "name": "",
          "type": "uint256"
        }
      ],
      "name": "orderById",
      "outputs": [
        {
          "name": "id",
          "type": "uint256"
        },
        {
          "name": "buyer",
          "type": "address"
        },
        {
          "name": "nameSurname",
          "type": "string"
        },
        {
          "name": "lineOneDirection",
          "type": "string"
        },
        {
          "name": "lineTwoDirection",
          "type": "string"
        },
        {
          "name": "city",
          "type": "bytes32"
        },
        {
          "name": "stateRegion",
          "type": "bytes32"
        },
        {
          "name": "postalCode",
          "type": "uint256"
        },
        {
          "name": "country",
          "type": "bytes32"
        },
        {
          "name": "phone",
          "type": "uint256"
        },
        {
          "name": "state",
          "type": "string"
        }
      ],
      "payable": false,
      "stateMutability": "view",
      "type": "function",
      "signature": "0x8d77eba5"
    },
    {
      "constant": true,
      "inputs": [
        {
          "name": "",
          "type": "uint256"
        }
      ],
      "name": "productById",
      "outputs": [
        {
          "name": "id",
          "type": "uint256"
        },
        {
          "name": "title",
          "type": "string"
        },
        {
          "name": "description",
          "type": "string"
        },
        {
          "name": "date",
          "type": "uint256"
        },
        {
          "name": "owner",
          "type": "address"
        },
        {
          "name": "price",
          "type": "uint256"
        },
        {
          "name": "image",
          "type": "string"
        }
      ],
      "payable": false,
      "stateMutability": "view",
      "type": "function",
      "signature": "0xa30b475f"
    },
    {
      "constant": true,
      "inputs": [
        {
          "name": "",
          "type": "address"
        },
        {
          "name": "",
          "type": "uint256"
        }
      ],
      "name": "completedOrders",
      "outputs": [
        {
          "name": "id",
          "type": "uint256"
        },
        {
          "name": "buyer",
          "type": "address"
        },
        {
          "name": "nameSurname",
          "type": "string"
        },
        {
          "name": "lineOneDirection",
          "type": "string"
        },
        {
          "name": "lineTwoDirection",
          "type": "string"
        },
        {
          "name": "city",
          "type": "bytes32"
        },
        {
          "name": "stateRegion",
          "type": "bytes32"
        },
        {
          "name": "postalCode",
          "type": "uint256"
        },
        {
          "name": "country",
          "type": "bytes32"
        },
        {
          "name": "phone",
          "type": "uint256"
        },
        {
          "name": "state",
          "type": "string"
        }
      ],
      "payable": false,
      "stateMutability": "view",
      "type": "function",
      "signature": "0xba3200be"
    },
    {
      "constant": true,
      "inputs": [],
      "name": "lastId",
      "outputs": [
        {
          "name": "",
          "type": "uint256"
        }
      ],
      "payable": false,
      "stateMutability": "view",
      "type": "function",
      "signature": "0xc1292cc3"
    },
    {
      "constant": true,
      "inputs": [
        {
          "name": "",
          "type": "address"
        },
        {
          "name": "",
          "type": "uint256"
        }
      ],
      "name": "pendingBuyerOrders",
      "outputs": [
        {
          "name": "id",
          "type": "uint256"
        },
        {
          "name": "buyer",
          "type": "address"
        },
        {
          "name": "nameSurname",
          "type": "string"
        },
        {
          "name": "lineOneDirection",
          "type": "string"
        },
        {
          "name": "lineTwoDirection",
          "type": "string"
        },
        {
          "name": "city",
          "type": "bytes32"
        },
        {
          "name": "stateRegion",
          "type": "bytes32"
        },
        {
          "name": "postalCode",
          "type": "uint256"
        },
        {
          "name": "country",
          "type": "bytes32"
        },
        {
          "name": "phone",
          "type": "uint256"
        },
        {
          "name": "state",
          "type": "string"
        }
      ],
      "payable": false,
      "stateMutability": "view",
      "type": "function",
      "signature": "0xd72b29f6"
    },
    {
      "constant": true,
      "inputs": [
        {
          "name": "",
          "type": "address"
        },
        {
          "name": "",
          "type": "uint256"
        }
      ],
      "name": "pendingSellerOrders",
      "outputs": [
        {
          "name": "id",
          "type": "uint256"
        },
        {
          "name": "buyer",
          "type": "address"
        },
        {
          "name": "nameSurname",
          "type": "string"
        },
        {
          "name": "lineOneDirection",
          "type": "string"
        },
        {
          "name": "lineTwoDirection",
          "type": "string"
        },
        {
          "name": "city",
          "type": "bytes32"
        },
        {
          "name": "stateRegion",
          "type": "bytes32"
        },
        {
          "name": "postalCode",
          "type": "uint256"
        },
        {
          "name": "country",
          "type": "bytes32"
        },
        {
          "name": "phone",
          "type": "uint256"
        },
        {
          "name": "state",
          "type": "string"
        }
      ],
      "payable": false,
      "stateMutability": "view",
      "type": "function",
      "signature": "0xf7a5a493"
    },
    {
      "constant": true,
      "inputs": [],
      "name": "token",
      "outputs": [
        {
          "name": "",
          "type": "address"
        }
      ],
      "payable": false,
      "stateMutability": "view",
      "type": "function",
      "signature": "0xfc0c546a"
    },
    {
      "inputs": [
        {
          "name": "_token",
          "type": "address"
        }
      ],
      "payable": false,
      "stateMutability": "nonpayable",
      "type": "constructor",
      "signature": "constructor"
    },
    {
      "constant": false,
      "inputs": [
        {
          "name": "_title",
          "type": "string"
        },
        {
          "name": "_description",
          "type": "string"
        },
        {
          "name": "_price",
          "type": "uint256"
        },
        {
          "name": "_image",
          "type": "string"
        }
      ],
      "name": "publishProduct",
      "outputs": [],
      "payable": false,
      "stateMutability": "nonpayable",
      "type": "function",
      "signature": "0x5a56740f"
    },
    {
      "constant": false,
      "inputs": [
        {
          "name": "_id",
          "type": "uint256"
        },
        {
          "name": "_nameSurname",
          "type": "string"
        },
        {
          "name": "_lineOneDirection",
          "type": "string"
        },
        {
          "name": "_lineTwoDirection",
          "type": "string"
        },
        {
          "name": "_city",
          "type": "bytes32"
        },
        {
          "name": "_stateRegion",
          "type": "bytes32"
        },
        {
          "name": "_postalCode",
          "type": "uint256"
        },
        {
          "name": "_country",
          "type": "bytes32"
        },
        {
          "name": "_phone",
          "type": "uint256"
        }
      ],
      "name": "buyProduct",
      "outputs": [],
      "payable": true,
      "stateMutability": "payable",
      "type": "function",
      "signature": "0xf4baa9e2"
    },
    {
      "constant": false,
      "inputs": [
        {
          "name": "_id",
          "type": "uint256"
        }
      ],
      "name": "markOrderCompleted",
      "outputs": [],
      "payable": false,
      "stateMutability": "nonpayable",
      "type": "function",
      "signature": "0xdf6711b0"
    },
    {
      "constant": true,
      "inputs": [],
      "name": "getProductsLength",
      "outputs": [
        {
          "name": "",
          "type": "uint256"
        }
      ],
      "payable": false,
      "stateMutability": "view",
      "type": "function",
      "signature": "0x1155dfe5"
    },
    {
      "constant": true,
      "inputs": [
        {
          "name": "_type",
          "type": "bytes32"
        },
        {
          "name": "_owner",
          "type": "address"
        }
      ],
      "name": "getOrdersLength",
      "outputs": [
        {
          "name": "",
          "type": "uint256"
        }
      ],
      "payable": false,
      "stateMutability": "view",
      "type": "function",
      "signature": "0xb1fe6ba5"
    }
  ],
  "bytecode": "0x608060405234801561001057600080fd5b50604051602080620054878339810180604052602081101561003157600080fd5b810190808051906020019092919050505080600760006101000a81548173ffffffffffffffffffffffffffffffffffffffff021916908373ffffffffffffffffffffffffffffffffffffffff160217905550506153f380620000946000396000f3fe6080604052600436106100df576000357c010000000000000000000000000000000000000000000000000000000090048063ba3200be1161009c578063df6711b011610076578063df6711b014610e90578063f4baa9e214610ecb578063f7a5a493146110f1578063fc0c546a14611366576100df565b8063ba3200be1461097b578063c1292cc314610bf0578063d72b29f614610c1b576100df565b80631155dfe5146100e45780635a56740f1461010f5780637acc0b201461030f5780638d77eba5146104e3578063a30b475f14610738578063b1fe6ba51461090c575b600080fd5b3480156100f057600080fd5b506100f96113bd565b6040518082815260200191505060405180910390f35b34801561011b57600080fd5b5061030d6004803603608081101561013257600080fd5b810190808035906020019064010000000081111561014f57600080fd5b82018360208201111561016157600080fd5b8035906020019184600183028401116401000000008311171561018357600080fd5b91908080601f016020809104026020016040519081016040528093929190818152602001838380828437600081840152601f19601f820116905080830192505050505050509192919290803590602001906401000000008111156101e657600080fd5b8201836020820111156101f857600080fd5b8035906020019184600183028401116401000000008311171561021a57600080fd5b91908080601f016020809104026020016040519081016040528093929190818152602001838380828437600081840152601f19601f820116905080830192505050505050509192919290803590602001909291908035906020019064010000000081111561028757600080fd5b82018360208201111561029957600080fd5b803590602001918460018302840111640100000000831117156102bb57600080fd5b91908080601f016020809104026020016040519081016040528093929190818152602001838380828437600081840152601f19601f8201169050808301925050505050505091929192905050506113ca565b005b34801561031b57600080fd5b506103486004803603602081101561033257600080fd5b81019080803590602001909291905050506118bd565b6040518088815260200180602001806020018781526020018673ffffffffffffffffffffffffffffffffffffffff1673ffffffffffffffffffffffffffffffffffffffff1681526020018581526020018060200184810384528a818151815260200191508051906020019080838360005b838110156103d45780820151818401526020810190506103b9565b50505050905090810190601f1680156104015780820380516001836020036101000a031916815260200191505b50848103835289818151815260200191508051906020019080838360005b8381101561043a57808201518184015260208101905061041f565b50505050905090810190601f1680156104675780820380516001836020036101000a031916815260200191505b50848103825285818151815260200191508051906020019080838360005b838110156104a0578082015181840152602081019050610485565b50505050905090810190601f1680156104cd5780820380516001836020036101000a031916815260200191505b509a505050505050505050505060405180910390f35b3480156104ef57600080fd5b5061051c6004803603602081101561050657600080fd5b8101908080359060200190929190505050611af6565b604051808c81526020018b73ffffffffffffffffffffffffffffffffffffffff1673ffffffffffffffffffffffffffffffffffffffff1681526020018060200180602001806020018a81526020018981526020018881526020018781526020018681526020018060200185810385528e818151815260200191508051906020019080838360005b838110156105be5780820151818401526020810190506105a3565b50505050905090810190601f1680156105eb5780820380516001836020036101000a031916815260200191505b5085810384528d818151815260200191508051906020019080838360005b83811015610624578082015181840152602081019050610609565b50505050905090810190601f1680156106515780820380516001836020036101000a031916815260200191505b5085810383528c818151815260200191508051906020019080838360005b8381101561068a57808201518184015260208101905061066f565b50505050905090810190601f1680156106b75780820380516001836020036101000a031916815260200191505b50858103825286818151815260200191508051906020019080838360005b838110156106f05780820151818401526020810190506106d5565b50505050905090810190601f16801561071d5780820380516001836020036101000a031916815260200191505b509f5050505050505050505050505050505060405180910390f35b34801561074457600080fd5b506107716004803603602081101561075b57600080fd5b8101908080359060200190929190505050611dd0565b6040518088815260200180602001806020018781526020018673ffffffffffffffffffffffffffffffffffffffff1673ffffffffffffffffffffffffffffffffffffffff1681526020018581526020018060200184810384528a818151815260200191508051906020019080838360005b838110156107fd5780820151818401526020810190506107e2565b50505050905090810190601f16801561082a5780820380516001836020036101000a031916815260200191505b50848103835289818151815260200191508051906020019080838360005b83811015610863578082015181840152602081019050610848565b50505050905090810190601f1680156108905780820380516001836020036101000a031916815260200191505b50848103825285818151815260200191508051906020019080838360005b838110156108c95780820151818401526020810190506108ae565b50505050905090810190601f1680156108f65780820380516001836020036101000a031916815260200191505b509a505050505050505050505060405180910390f35b34801561091857600080fd5b506109656004803603604081101561092f57600080fd5b8101908080359060200190929190803573ffffffffffffffffffffffffffffffffffffffff169060200190929190505050611ffa565b6040518082815260200191505060405180910390f35b34801561098757600080fd5b506109d46004803603604081101561099e57600080fd5b81019080803573ffffffffffffffffffffffffffffffffffffffff16906020019092919080359060200190929190505050612158565b604051808c81526020018b73ffffffffffffffffffffffffffffffffffffffff1673ffffffffffffffffffffffffffffffffffffffff1681526020018060200180602001806020018a81526020018981526020018881526020018781526020018681526020018060200185810385528e818151815260200191508051906020019080838360005b83811015610a76578082015181840152602081019050610a5b565b50505050905090810190601f168015610aa35780820380516001836020036101000a031916815260200191505b5085810384528d818151815260200191508051906020019080838360005b83811015610adc578082015181840152602081019050610ac1565b50505050905090810190601f168015610b095780820380516001836020036101000a031916815260200191505b5085810383528c818151815260200191508051906020019080838360005b83811015610b42578082015181840152602081019050610b27565b50505050905090810190601f168015610b6f5780820380516001836020036101000a031916815260200191505b50858103825286818151815260200191508051906020019080838360005b83811015610ba8578082015181840152602081019050610b8d565b50505050905090810190601f168015610bd55780820380516001836020036101000a031916815260200191505b509f5050505050505050505050505050505060405180910390f35b348015610bfc57600080fd5b50610c0561244e565b6040518082815260200191505060405180910390f35b348015610c2757600080fd5b50610c7460048036036040811015610c3e57600080fd5b81019080803573ffffffffffffffffffffffffffffffffffffffff16906020019092919080359060200190929190505050612454565b604051808c81526020018b73ffffffffffffffffffffffffffffffffffffffff1673ffffffffffffffffffffffffffffffffffffffff1681526020018060200180602001806020018a81526020018981526020018881526020018781526020018681526020018060200185810385528e818151815260200191508051906020019080838360005b83811015610d16578082015181840152602081019050610cfb565b50505050905090810190601f168015610d435780820380516001836020036101000a031916815260200191505b5085810384528d818151815260200191508051906020019080838360005b83811015610d7c578082015181840152602081019050610d61565b50505050905090810190601f168015610da95780820380516001836020036101000a031916815260200191505b5085810383528c818151815260200191508051906020019080838360005b83811015610de2578082015181840152602081019050610dc7565b50505050905090810190601f168015610e0f5780820380516001836020036101000a031916815260200191505b50858103825286818151815260200191508051906020019080838360005b83811015610e48578082015181840152602081019050610e2d565b50505050905090810190601f168015610e755780820380516001836020036101000a031916815260200191505b509f5050505050505050505050505050505060405180910390f35b348015610e9c57600080fd5b50610ec960048036036020811015610eb357600080fd5b810190808035906020019092919050505061274a565b005b6110ef6004803603610120811015610ee257600080fd5b810190808035906020019092919080359060200190640100000000811115610f0957600080fd5b820183602082011115610f1b57600080fd5b80359060200191846001830284011164010000000083111715610f3d57600080fd5b91908080601f016020809104026020016040519081016040528093929190818152602001838380828437600081840152601f19601f82011690508083019250505050505050919291929080359060200190640100000000811115610fa057600080fd5b820183602082011115610fb257600080fd5b80359060200191846001830284011164010000000083111715610fd457600080fd5b91908080601f016020809104026020016040519081016040528093929190818152602001838380828437600081840152601f19601f8201169050808301925050505050505091929192908035906020019064010000000081111561103757600080fd5b82018360208201111561104957600080fd5b8035906020019184600183028401116401000000008311171561106b57600080fd5b91908080601f016020809104026020016040519081016040528093929190818152602001838380828437600081840152601f19601f8201169050808301925050505050505091929192908035906020019092919080359060200190929190803590602001909291908035906020019092919080359060200190929190505050613c74565b005b3480156110fd57600080fd5b5061114a6004803603604081101561111457600080fd5b81019080803573ffffffffffffffffffffffffffffffffffffffff16906020019092919080359060200190929190505050614c96565b604051808c81526020018b73ffffffffffffffffffffffffffffffffffffffff1673ffffffffffffffffffffffffffffffffffffffff1681526020018060200180602001806020018a81526020018981526020018881526020018781526020018681526020018060200185810385528e818151815260200191508051906020019080838360005b838110156111ec5780820151818401526020810190506111d1565b50505050905090810190601f1680156112195780820380516001836020036101000a031916815260200191505b5085810384528d818151815260200191508051906020019080838360005b83811015611252578082015181840152602081019050611237565b50505050905090810190601f16801561127f5780820380516001836020036101000a031916815260200191505b5085810383528c818151815260200191508051906020019080838360005b838110156112b857808201518184015260208101905061129d565b50505050905090810190601f1680156112e55780820380516001836020036101000a031916815260200191505b50858103825286818151815260200191508051906020019080838360005b8381101561131e578082015181840152602081019050611303565b50505050905090810190601f16801561134b5780820380516001836020036101000a031916815260200191505b509f5050505050505050505050505050505060405180910390f35b34801561137257600080fd5b5061137b614f8c565b604051808273ffffffffffffffffffffffffffffffffffffffff1673ffffffffffffffffffffffffffffffffffffffff16815260200191505060405180910390f35b6000600580549050905090565b60008451111515611443576040517f08c379a00000000000000000000000000000000000000000000000000000000081526004018080602001828103825260198152602001807f546865207469746c652063616e6e6f7420626520656d7074790000000000000081525060200191505060405180910390fd5b600083511115156114bc576040517f08c379a000000000000000000000000000000000000000000000000000000000815260040180806020018281038252601f8152602001807f546865206465736372697074696f6e2063616e6e6f7420626520656d7074790081525060200191505060405180910390fd5b600082111515611534576040517f08c379a00000000000000000000000000000000000000000000000000000000081526004018080602001828103825260198152602001807f5468652070726963652063616e6e6f7420626520656d7074790000000000000081525060200191505060405180910390fd5b600081511115156115ad576040517f08c379a00000000000000000000000000000000000000000000000000000000081526004018080602001828103825260198152602001807f54686520696d6167652063616e6e6f7420626520656d7074790000000000000081525060200191505060405180910390fd5b6115b5614fb2565b60e06040519081016040528060065481526020018681526020018581526020014281526020013373ffffffffffffffffffffffffffffffffffffffff16815260200184815260200183815250905060058190806001815401808255809150509060018203906000526020600020906007020160009091929091909150600082015181600001556020820151816001019080519060200190611657929190615006565b506040820151816002019080519060200190611674929190615006565b506060820151816003015560808201518160040160006101000a81548173ffffffffffffffffffffffffffffffffffffffff021916908373ffffffffffffffffffffffffffffffffffffffff16021790555060a0820151816005015560c08201518160060190805190602001906116ec929190615006565b505050508060036000600654815260200190815260200160002060008201518160000155602082015181600101908051906020019061172c929190615006565b506040820151816002019080519060200190611749929190615006565b506060820151816003015560808201518160040160006101000a81548173ffffffffffffffffffffffffffffffffffffffff021916908373ffffffffffffffffffffffffffffffffffffffff16021790555060a0820151816005015560c08201518160060190805190602001906117c1929190615006565b50905050600760009054906101000a900473ffffffffffffffffffffffffffffffffffffffff1673ffffffffffffffffffffffffffffffffffffffff166340c10f19306006546040518363ffffffff167c0100000000000000000000000000000000000000000000000000000000028152600401808373ffffffffffffffffffffffffffffffffffffffff1673ffffffffffffffffffffffffffffffffffffffff16815260200182815260200192505050600060405180830381600087803b15801561188c57600080fd5b505af11580156118a0573d6000803e3d6000fd5b505050506006600081548092919060010191905055505050505050565b6005818154811015156118cc57fe5b9060005260206000209060070201600091509050806000015490806001018054600181600116156101000203166002900480601f01602080910402602001604051908101604052809291908181526020018280546001816001161561010002031660029004801561197e5780601f106119535761010080835404028352916020019161197e565b820191906000526020600020905b81548152906001019060200180831161196157829003601f168201915b505050505090806002018054600181600116156101000203166002900480601f016020809104026020016040519081016040528092919081815260200182805460018160011615610100020316600290048015611a1c5780601f106119f157610100808354040283529160200191611a1c565b820191906000526020600020905b8154815290600101906020018083116119ff57829003601f168201915b5050505050908060030154908060040160009054906101000a900473ffffffffffffffffffffffffffffffffffffffff1690806005015490806006018054600181600116156101000203166002900480601f016020809104026020016040519081016040528092919081815260200182805460018160011615610100020316600290048015611aec5780601f10611ac157610100808354040283529160200191611aec565b820191906000526020600020905b815481529060010190602001808311611acf57829003601f168201915b5050505050905087565b60046020528060005260406000206000915090508060000154908060010160009054906101000a900473ffffffffffffffffffffffffffffffffffffffff1690806002018054600181600116156101000203166002900480601f016020809104026020016040519081016040528092919081815260200182805460018160011615610100020316600290048015611bce5780601f10611ba357610100808354040283529160200191611bce565b820191906000526020600020905b815481529060010190602001808311611bb157829003601f168201915b505050505090806003018054600181600116156101000203166002900480601f016020809104026020016040519081016040528092919081815260200182805460018160011615610100020316600290048015611c6c5780601f10611c4157610100808354040283529160200191611c6c565b820191906000526020600020905b815481529060010190602001808311611c4f57829003601f168201915b505050505090806004018054600181600116156101000203166002900480601f016020809104026020016040519081016040528092919081815260200182805460018160011615610100020316600290048015611d0a5780601f10611cdf57610100808354040283529160200191611d0a565b820191906000526020600020905b815481529060010190602001808311611ced57829003601f168201915b50505050509080600501549080600601549080600701549080600801549080600901549080600a018054600181600116156101000203166002900480601f016020809104026020016040519081016040528092919081815260200182805460018160011615610100020316600290048015611dc65780601f10611d9b57610100808354040283529160200191611dc6565b820191906000526020600020905b815481529060010190602001808311611da957829003601f168201915b505050505090508b565b6003602052806000526040600020600091509050806000015490806001018054600181600116156101000203166002900480601f016020809104026020016040519081016040528092919081815260200182805460018160011615610100020316600290048015611e825780601f10611e5757610100808354040283529160200191611e82565b820191906000526020600020905b815481529060010190602001808311611e6557829003601f168201915b505050505090806002018054600181600116156101000203166002900480601f016020809104026020016040519081016040528092919081815260200182805460018160011615610100020316600290048015611f205780601f10611ef557610100808354040283529160200191611f20565b820191906000526020600020905b815481529060010190602001808311611f0357829003601f168201915b5050505050908060030154908060040160009054906101000a900473ffffffffffffffffffffffffffffffffffffffff1690806005015490806006018054600181600116156101000203166002900480601f016020809104026020016040519081016040528092919081815260200182805460018160011615610100020316600290048015611ff05780601f10611fc557610100808354040283529160200191611ff0565b820191906000526020600020905b815481529060010190602001808311611fd357829003601f168201915b5050505050905087565b60007f73656c6c6572000000000000000000000000000000000000000000000000000083141561206d576000808373ffffffffffffffffffffffffffffffffffffffff1673ffffffffffffffffffffffffffffffffffffffff168152602001908152602001600020805490509050612152565b7f62757965720000000000000000000000000000000000000000000000000000008314156120df57600160008373ffffffffffffffffffffffffffffffffffffffff1673ffffffffffffffffffffffffffffffffffffffff168152602001908152602001600020805490509050612152565b7f636f6d706c65746564000000000000000000000000000000000000000000000083141561215157600260008373ffffffffffffffffffffffffffffffffffffffff1673ffffffffffffffffffffffffffffffffffffffff168152602001908152602001600020805490509050612152565b5b92915050565b60026020528160005260406000208181548110151561217357fe5b90600052602060002090600b0201600091509150508060000154908060010160009054906101000a900473ffffffffffffffffffffffffffffffffffffffff1690806002018054600181600116156101000203166002900480601f01602080910402602001604051908101604052809291908181526020018280546001816001161561010002031660029004801561224c5780601f106122215761010080835404028352916020019161224c565b820191906000526020600020905b81548152906001019060200180831161222f57829003601f168201915b505050505090806003018054600181600116156101000203166002900480601f0160208091040260200160405190810160405280929190818152602001828054600181600116156101000203166002900480156122ea5780601f106122bf576101008083540402835291602001916122ea565b820191906000526020600020905b8154815290600101906020018083116122cd57829003601f168201915b505050505090806004018054600181600116156101000203166002900480601f0160208091040260200160405190810160405280929190818152602001828054600181600116156101000203166002900480156123885780601f1061235d57610100808354040283529160200191612388565b820191906000526020600020905b81548152906001019060200180831161236b57829003601f168201915b50505050509080600501549080600601549080600701549080600801549080600901549080600a018054600181600116156101000203166002900480601f0160208091040260200160405190810160405280929190818152602001828054600181600116156101000203166002900480156124445780601f1061241957610100808354040283529160200191612444565b820191906000526020600020905b81548152906001019060200180831161242757829003601f168201915b505050505090508b565b60065481565b60016020528160005260406000208181548110151561246f57fe5b90600052602060002090600b0201600091509150508060000154908060010160009054906101000a900473ffffffffffffffffffffffffffffffffffffffff1690806002018054600181600116156101000203166002900480601f0160208091040260200160405190810160405280929190818152602001828054600181600116156101000203166002900480156125485780601f1061251d57610100808354040283529160200191612548565b820191906000526020600020905b81548152906001019060200180831161252b57829003601f168201915b505050505090806003018054600181600116156101000203166002900480601f0160208091040260200160405190810160405280929190818152602001828054600181600116156101000203166002900480156125e65780601f106125bb576101008083540402835291602001916125e6565b820191906000526020600020905b8154815290600101906020018083116125c957829003601f168201915b505050505090806004018054600181600116156101000203166002900480601f0160208091040260200160405190810160405280929190818152602001828054600181600116156101000203166002900480156126845780601f1061265957610100808354040283529160200191612684565b820191906000526020600020905b81548152906001019060200180831161266757829003601f168201915b50505050509080600501549080600601549080600701549080600801549080600901549080600a018054600181600116156101000203166002900480601f0160208091040260200160405190810160405280929190818152602001828054600181600116156101000203166002900480156127405780601f1061271557610100808354040283529160200191612740565b820191906000526020600020905b81548152906001019060200180831161272357829003601f168201915b505050505090508b565b612752615086565b600460008381526020019081526020016000206101606040519081016040529081600082015481526020016001820160009054906101000a900473ffffffffffffffffffffffffffffffffffffffff1673ffffffffffffffffffffffffffffffffffffffff1673ffffffffffffffffffffffffffffffffffffffff168152602001600282018054600181600116156101000203166002900480601f01602080910402602001604051908101604052809291908181526020018280546001816001161561010002031660029004801561286b5780601f106128405761010080835404028352916020019161286b565b820191906000526020600020905b81548152906001019060200180831161284e57829003601f168201915b50505050508152602001600382018054600181600116156101000203166002900480601f01602080910402602001604051908101604052809291908181526020018280546001816001161561010002031660029004801561290d5780601f106128e25761010080835404028352916020019161290d565b820191906000526020600020905b8154815290600101906020018083116128f057829003601f168201915b50505050508152602001600482018054600181600116156101000203166002900480601f0160208091040260200160405190810160405280929190818152602001828054600181600116156101000203166002900480156129af5780601f10612984576101008083540402835291602001916129af565b820191906000526020600020905b81548152906001019060200180831161299257829003601f168201915b505050505081526020016005820154815260200160068201548152602001600782015481526020016008820154815260200160098201548152602001600a82018054600181600116156101000203166002900480601f016020809104026020016040519081016040528092919081815260200182805460018160011615610100020316600290048015612a835780601f10612a5857610100808354040283529160200191612a83565b820191906000526020600020905b815481529060010190602001808311612a6657829003601f168201915b5050505050815250509050612a96614fb2565b6003600084815260200190815260200160002060e0604051908101604052908160008201548152602001600182018054600181600116156101000203166002900480601f016020809104026020016040519081016040528092919081815260200182805460018160011615610100020316600290048015612b585780601f10612b2d57610100808354040283529160200191612b58565b820191906000526020600020905b815481529060010190602001808311612b3b57829003601f168201915b50505050508152602001600282018054600181600116156101000203166002900480601f016020809104026020016040519081016040528092919081815260200182805460018160011615610100020316600290048015612bfa5780601f10612bcf57610100808354040283529160200191612bfa565b820191906000526020600020905b815481529060010190602001808311612bdd57829003601f168201915b50505050508152602001600382015481526020016004820160009054906101000a900473ffffffffffffffffffffffffffffffffffffffff1673ffffffffffffffffffffffffffffffffffffffff1673ffffffffffffffffffffffffffffffffffffffff16815260200160058201548152602001600682018054600181600116156101000203166002900480601f016020809104026020016040519081016040528092919081815260200182805460018160011615610100020316600290048015612d065780601f10612cdb57610100808354040283529160200191612d06565b820191906000526020600020905b815481529060010190602001808311612ce957829003601f168201915b50505050508152505090503373ffffffffffffffffffffffffffffffffffffffff16816080015173ffffffffffffffffffffffffffffffffffffffff16141515612d9b576040517f08c379a000000000000000000000000000000000000000000000000000000000815260040180806020018281038252602f815260200180615316602f913960400191505060405180910390fd5b6040805190810160405280600981526020017f636f6d706c65746564000000000000000000000000000000000000000000000081525082610140018190525060008090505b600080836080015173ffffffffffffffffffffffffffffffffffffffff1673ffffffffffffffffffffffffffffffffffffffff168152602001908152602001600020805490508110156133e15783600080846080015173ffffffffffffffffffffffffffffffffffffffff1673ffffffffffffffffffffffffffffffffffffffff16815260200190815260200160002082815481101515612e7d57fe5b90600052602060002090600b02016000015414156133d457612e9d615086565b600460006001600080876080015173ffffffffffffffffffffffffffffffffffffffff1673ffffffffffffffffffffffffffffffffffffffff168152602001908152602001600020805490500381526020019081526020016000206101606040519081016040529081600082015481526020016001820160009054906101000a900473ffffffffffffffffffffffffffffffffffffffff1673ffffffffffffffffffffffffffffffffffffffff1673ffffffffffffffffffffffffffffffffffffffff168152602001600282018054600181600116156101000203166002900480601f016020809104026020016040519081016040528092919081815260200182805460018160011615610100020316600290048015612ffe5780601f10612fd357610100808354040283529160200191612ffe565b820191906000526020600020905b815481529060010190602001808311612fe157829003601f168201915b50505050508152602001600382018054600181600116156101000203166002900480601f0160208091040260200160405190810160405280929190818152602001828054600181600116156101000203166002900480156130a05780601f10613075576101008083540402835291602001916130a0565b820191906000526020600020905b81548152906001019060200180831161308357829003601f168201915b50505050508152602001600482018054600181600116156101000203166002900480601f0160208091040260200160405190810160405280929190818152602001828054600181600116156101000203166002900480156131425780601f1061311757610100808354040283529160200191613142565b820191906000526020600020905b81548152906001019060200180831161312557829003601f168201915b505050505081526020016005820154815260200160068201548152602001600782015481526020016008820154815260200160098201548152602001600a82018054600181600116156101000203166002900480601f0160208091040260200160405190810160405280929190818152602001828054600181600116156101000203166002900480156132165780601f106131eb57610100808354040283529160200191613216565b820191906000526020600020905b8154815290600101906020018083116131f957829003601f168201915b505050505081525050905080600080856080015173ffffffffffffffffffffffffffffffffffffffff1673ffffffffffffffffffffffffffffffffffffffff1681526020019081526020016000208381548110151561327157fe5b90600052602060002090600b02016000820151816000015560208201518160010160006101000a81548173ffffffffffffffffffffffffffffffffffffffff021916908373ffffffffffffffffffffffffffffffffffffffff16021790555060408201518160020190805190602001906132ec929190615006565b506060820151816003019080519060200190613309929190615006565b506080820151816004019080519060200190613326929190615006565b5060a0820151816005015560c0820151816006015560e082015181600701556101008201518160080155610120820151816009015561014082015181600a019080519060200190613378929190615006565b50905050600080846080015173ffffffffffffffffffffffffffffffffffffffff1673ffffffffffffffffffffffffffffffffffffffff1681526020019081526020016000208054809190600190036133d19190615100565b50505b8080600101915050612de0565b5060008090505b60016000846020015173ffffffffffffffffffffffffffffffffffffffff1673ffffffffffffffffffffffffffffffffffffffff168152602001908152602001600020805490508110156139f157826000015160016000856020015173ffffffffffffffffffffffffffffffffffffffff1673ffffffffffffffffffffffffffffffffffffffff1681526020019081526020016000208281548110151561348b57fe5b90600052602060002090600b02016000015414156139e4576134ab615086565b600460006001806000886020015173ffffffffffffffffffffffffffffffffffffffff1673ffffffffffffffffffffffffffffffffffffffff168152602001908152602001600020805490500381526020019081526020016000206101606040519081016040529081600082015481526020016001820160009054906101000a900473ffffffffffffffffffffffffffffffffffffffff1673ffffffffffffffffffffffffffffffffffffffff1673ffffffffffffffffffffffffffffffffffffffff168152602001600282018054600181600116156101000203166002900480601f01602080910402602001604051908101604052809291908181526020018280546001816001161561010002031660029004801561360c5780601f106135e15761010080835404028352916020019161360c565b820191906000526020600020905b8154815290600101906020018083116135ef57829003601f168201915b50505050508152602001600382018054600181600116156101000203166002900480601f0160208091040260200160405190810160405280929190818152602001828054600181600116156101000203166002900480156136ae5780601f10613683576101008083540402835291602001916136ae565b820191906000526020600020905b81548152906001019060200180831161369157829003601f168201915b50505050508152602001600482018054600181600116156101000203166002900480601f0160208091040260200160405190810160405280929190818152602001828054600181600116156101000203166002900480156137505780601f1061372557610100808354040283529160200191613750565b820191906000526020600020905b81548152906001019060200180831161373357829003601f168201915b505050505081526020016005820154815260200160068201548152602001600782015481526020016008820154815260200160098201548152602001600a82018054600181600116156101000203166002900480601f0160208091040260200160405190810160405280929190818152602001828054600181600116156101000203166002900480156138245780601f106137f957610100808354040283529160200191613824565b820191906000526020600020905b81548152906001019060200180831161380757829003601f168201915b50505050508152505090508060016000866020015173ffffffffffffffffffffffffffffffffffffffff1673ffffffffffffffffffffffffffffffffffffffff1681526020019081526020016000208381548110151561388057fe5b90600052602060002090600b02016000820151816000015560208201518160010160006101000a81548173ffffffffffffffffffffffffffffffffffffffff021916908373ffffffffffffffffffffffffffffffffffffffff16021790555060408201518160020190805190602001906138fb929190615006565b506060820151816003019080519060200190613918929190615006565b506080820151816004019080519060200190613935929190615006565b5060a0820151816005015560c0820151816006015560e082015181600701556101008201518160080155610120820151816009015561014082015181600a019080519060200190613987929190615006565b5090505060016000856020015173ffffffffffffffffffffffffffffffffffffffff1673ffffffffffffffffffffffffffffffffffffffff1681526020019081526020016000208054809190600190036139e19190615100565b50505b80806001019150506133e8565b5060026000836020015173ffffffffffffffffffffffffffffffffffffffff1673ffffffffffffffffffffffffffffffffffffffff168152602001908152602001600020829080600181540180825580915050906001820390600052602060002090600b0201600090919290919091506000820151816000015560208201518160010160006101000a81548173ffffffffffffffffffffffffffffffffffffffff021916908373ffffffffffffffffffffffffffffffffffffffff1602179055506040820151816002019080519060200190613ace929190615006565b506060820151816003019080519060200190613aeb929190615006565b506080820151816004019080519060200190613b08929190615006565b5060a0820151816005015560c0820151816006015560e082015181600701556101008201518160080155610120820151816009015561014082015181600a019080519060200190613b5a929190615006565b5050505081600460008581526020019081526020016000206000820151816000015560208201518160010160006101000a81548173ffffffffffffffffffffffffffffffffffffffff021916908373ffffffffffffffffffffffffffffffffffffffff1602179055506040820151816002019080519060200190613bdf929190615006565b506060820151816003019080519060200190613bfc929190615006565b506080820151816004019080519060200190613c19929190615006565b5060a0820151816005015560c0820151816006015560e082015181600701556101008201518160080155610120820151816009015561014082015181600a019080519060200190613c6b929190615006565b50905050505050565b60008851111515613ced576040517f08c379a00000000000000000000000000000000000000000000000000000000081526004018080602001828103825260208152602001807f546865206e616d6520616e64207375726e616d65206d7573742062652073657481525060200191505060405180910390fd5b60008751111515613d49576040517f08c379a000000000000000000000000000000000000000000000000000000000815260040180806020018281038252602281526020018061536b6022913960400191505060405180910390fd5b6000602060ff16111515613dc5576040517f08c379a00000000000000000000000000000000000000000000000000000000081526004018080602001828103825260148152602001807f5468652063697479206d7573742062652073657400000000000000000000000081525060200191505060405180910390fd5b6000602060ff16111515613e41576040517f08c379a000000000000000000000000000000000000000000000000000000000815260040180806020018281038252601f8152602001807f546865207374617465206f7220726567696f6e206d757374206265207365740081525060200191505060405180910390fd5b600083111515613eb9576040517f08c379a000000000000000000000000000000000000000000000000000000000815260040180806020018281038252601b8152602001807f54686520706f7374616c20636f6465206d75737420626520736574000000000081525060200191505060405180910390fd5b600060010282111515613f34576040517f08c379a00000000000000000000000000000000000000000000000000000000081526004018080602001828103825260178152602001807f54686520636f756e747279206d7573742062652073657400000000000000000081525060200191505060405180910390fd5b613f3c614fb2565b600360008b815260200190815260200160002060e0604051908101604052908160008201548152602001600182018054600181600116156101000203166002900480601f016020809104026020016040519081016040528092919081815260200182805460018160011615610100020316600290048015613ffe5780601f10613fd357610100808354040283529160200191613ffe565b820191906000526020600020905b815481529060010190602001808311613fe157829003601f168201915b50505050508152602001600282018054600181600116156101000203166002900480601f0160208091040260200160405190810160405280929190818152602001828054600181600116156101000203166002900480156140a05780601f10614075576101008083540402835291602001916140a0565b820191906000526020600020905b81548152906001019060200180831161408357829003601f168201915b50505050508152602001600382015481526020016004820160009054906101000a900473ffffffffffffffffffffffffffffffffffffffff1673ffffffffffffffffffffffffffffffffffffffff1673ffffffffffffffffffffffffffffffffffffffff16815260200160058201548152602001600682018054600181600116156101000203166002900480601f0160208091040260200160405190810160405280929190818152602001828054600181600116156101000203166002900480156141ac5780601f10614181576101008083540402835291602001916141ac565b820191906000526020600020905b81548152906001019060200180831161418f57829003601f168201915b50505050508152505090506000816020015151111515614217576040517f08c379a00000000000000000000000000000000000000000000000000000000081526004018080602001828103825260268152602001806153456026913960400191505060405180910390fd5b61421f615086565b610160604051908101604052808c81526020013373ffffffffffffffffffffffffffffffffffffffff1681526020018b81526020018a81526020018981526020018881526020018781526020018681526020018581526020018481526020016040805190810160405280600781526020017f70656e64696e670000000000000000000000000000000000000000000000000081525081525090508160a001513410151515614318576040517f08c379a000000000000000000000000000000000000000000000000000000000815260040180806020018281038252603b81526020018061538d603b913960400191505060405180910390fd5b60008090505b6005805490508110156146ea578b60058281548110151561433b57fe5b90600052602060002090600702016000015414156146dd5761435b614fb2565b600560016005805490500381548110151561437257fe5b906000526020600020906007020160e0604051908101604052908160008201548152602001600182018054600181600116156101000203166002900480601f01602080910402602001604051908101604052809291908181526020018280546001816001161561010002031660029004801561442f5780601f106144045761010080835404028352916020019161442f565b820191906000526020600020905b81548152906001019060200180831161441257829003601f168201915b50505050508152602001600282018054600181600116156101000203166002900480601f0160208091040260200160405190810160405280929190818152602001828054600181600116156101000203166002900480156144d15780601f106144a6576101008083540402835291602001916144d1565b820191906000526020600020905b8154815290600101906020018083116144b457829003601f168201915b50505050508152602001600382015481526020016004820160009054906101000a900473ffffffffffffffffffffffffffffffffffffffff1673ffffffffffffffffffffffffffffffffffffffff1673ffffffffffffffffffffffffffffffffffffffff16815260200160058201548152602001600682018054600181600116156101000203166002900480601f0160208091040260200160405190810160405280929190818152602001828054600181600116156101000203166002900480156145dd5780601f106145b2576101008083540402835291602001916145dd565b820191906000526020600020905b8154815290600101906020018083116145c057829003601f168201915b5050505050815250509050806005838154811015156145f857fe5b906000526020600020906007020160008201518160000155602082015181600101908051906020019061462c929190615006565b506040820151816002019080519060200190614649929190615006565b506060820151816003015560808201518160040160006101000a81548173ffffffffffffffffffffffffffffffffffffffff021916908373ffffffffffffffffffffffffffffffffffffffff16021790555060a0820151816005015560c08201518160060190805190602001906146c1929190615006565b5090505060058054809190600190036146da9190615132565b50505b808060010191505061431e565b508160a00151341115614745573373ffffffffffffffffffffffffffffffffffffffff166108fc8360a0015134039081150290604051600060405180830381858888f19350505050158015614743573d6000803e3d6000fd5b505b600080836080015173ffffffffffffffffffffffffffffffffffffffff1673ffffffffffffffffffffffffffffffffffffffff168152602001908152602001600020819080600181540180825580915050906001820390600052602060002090600b0201600090919290919091506000820151816000015560208201518160010160006101000a81548173ffffffffffffffffffffffffffffffffffffffff021916908373ffffffffffffffffffffffffffffffffffffffff1602179055506040820151816002019080519060200190614820929190615006565b50606082015181600301908051906020019061483d929190615006565b50608082015181600401908051906020019061485a929190615006565b5060a0820151816005015560c0820151816006015560e082015181600701556101008201518160080155610120820151816009015561014082015181600a0190805190602001906148ac929190615006565b50505050600160003373ffffffffffffffffffffffffffffffffffffffff1673ffffffffffffffffffffffffffffffffffffffff168152602001908152602001600020819080600181540180825580915050906001820390600052602060002090600b0201600090919290919091506000820151816000015560208201518160010160006101000a81548173ffffffffffffffffffffffffffffffffffffffff021916908373ffffffffffffffffffffffffffffffffffffffff1602179055506040820151816002019080519060200190614988929190615006565b5060608201518160030190805190602001906149a5929190615006565b5060808201518160040190805190602001906149c2929190615006565b5060a0820151816005015560c0820151816006015560e082015181600701556101008201518160080155610120820151816009015561014082015181600a019080519060200190614a14929190615006565b5050505080600460008d81526020019081526020016000206000820151816000015560208201518160010160006101000a81548173ffffffffffffffffffffffffffffffffffffffff021916908373ffffffffffffffffffffffffffffffffffffffff1602179055506040820151816002019080519060200190614a99929190615006565b506060820151816003019080519060200190614ab6929190615006565b506080820151816004019080519060200190614ad3929190615006565b5060a0820151816005015560c0820151816006015560e082015181600701556101008201518160080155610120820151816009015561014082015181600a019080519060200190614b25929190615006565b50905050600760009054906101000a900473ffffffffffffffffffffffffffffffffffffffff1673ffffffffffffffffffffffffffffffffffffffff166323b872dd30338e6040518463ffffffff167c0100000000000000000000000000000000000000000000000000000000028152600401808473ffffffffffffffffffffffffffffffffffffffff1673ffffffffffffffffffffffffffffffffffffffff1681526020018373ffffffffffffffffffffffffffffffffffffffff1673ffffffffffffffffffffffffffffffffffffffff1681526020018281526020019350505050600060405180830381600087803b158015614c2257600080fd5b505af1158015614c36573d6000803e3d6000fd5b50505050816080015173ffffffffffffffffffffffffffffffffffffffff166108fc8360a001519081150290604051600060405180830381858888f19350505050158015614c88573d6000803e3d6000fd5b505050505050505050505050565b600060205281600052604060002081815481101515614cb157fe5b90600052602060002090600b0201600091509150508060000154908060010160009054906101000a900473ffffffffffffffffffffffffffffffffffffffff1690806002018054600181600116156101000203166002900480601f016020809104026020016040519081016040528092919081815260200182805460018160011615610100020316600290048015614d8a5780601f10614d5f57610100808354040283529160200191614d8a565b820191906000526020600020905b815481529060010190602001808311614d6d57829003601f168201915b505050505090806003018054600181600116156101000203166002900480601f016020809104026020016040519081016040528092919081815260200182805460018160011615610100020316600290048015614e285780601f10614dfd57610100808354040283529160200191614e28565b820191906000526020600020905b815481529060010190602001808311614e0b57829003601f168201915b505050505090806004018054600181600116156101000203166002900480601f016020809104026020016040519081016040528092919081815260200182805460018160011615610100020316600290048015614ec65780601f10614e9b57610100808354040283529160200191614ec6565b820191906000526020600020905b815481529060010190602001808311614ea957829003601f168201915b50505050509080600501549080600601549080600701549080600801549080600901549080600a018054600181600116156101000203166002900480601f016020809104026020016040519081016040528092919081815260200182805460018160011615610100020316600290048015614f825780601f10614f5757610100808354040283529160200191614f82565b820191906000526020600020905b815481529060010190602001808311614f6557829003601f168201915b505050505090508b565b600760009054906101000a900473ffffffffffffffffffffffffffffffffffffffff1681565b60e06040519081016040528060008152602001606081526020016060815260200160008152602001600073ffffffffffffffffffffffffffffffffffffffff16815260200160008152602001606081525090565b828054600181600116156101000203166002900490600052602060002090601f016020900481019282601f1061504757805160ff1916838001178555615075565b82800160010185558215615075579182015b82811115615074578251825591602001919060010190615059565b5b5090506150829190615164565b5090565b6101606040519081016040528060008152602001600073ffffffffffffffffffffffffffffffffffffffff1681526020016060815260200160608152602001606081526020016000801916815260200160008019168152602001600081526020016000801916815260200160008152602001606081525090565b81548183558181111561512d57600b0281600b02836000526020600020918201910161512c9190615189565b5b505050565b81548183558181111561515f5760070281600702836000526020600020918201910161515e919061523f565b5b505050565b61518691905b8082111561518257600081600090555060010161516a565b5090565b90565b61523c91905b80821115615238576000808201600090556001820160006101000a81549073ffffffffffffffffffffffffffffffffffffffff02191690556002820160006151d791906152cd565b6003820160006151e791906152cd565b6004820160006151f791906152cd565b60058201600090556006820160009055600782016000905560088201600090556009820160009055600a8201600061522f91906152cd565b50600b0161518f565b5090565b90565b6152ca91905b808211156152c65760008082016000905560018201600061526691906152cd565b60028201600061527691906152cd565b60038201600090556004820160006101000a81549073ffffffffffffffffffffffffffffffffffffffff021916905560058201600090556006820160006152bd91906152cd565b50600701615245565b5090565b90565b50805460018160011615610100020316600290046000825580601f106152f35750615312565b601f0160209004906000526020600020908101906153119190615164565b5b5056fe4f6e6c79207468652073656c6c65722063616e206d61726b20746865206f7264657220617320636f6d706c657465645468652070726f64756374206d75737420657869737420746f20626520707572636861736564546865206c696e65206f6e6520646972656374696f6e206d75737420626520736574546865207061796d656e74206d757374206265206c6172676572206f7220657175616c207468616e207468652070726f6475637473207072696365a165627a7a7230582016ca78558ffb4b0c510c5f9f13f1675a2bc7df4300e077eb75b88db50027fb6f0029",
  "source": "pragma solidity ^0.5.0;\n\nimport './ERC721.sol';\n\n/// @notice The Ecommerce Token that implements the ERC721 token with mint function\n/// @author Merunas Grincalaitis <merunasgrincalaitis@gmail.com>\ncontract EcommerceToken is ERC721 {\n    address public ecommerce;\n    bool public isEcommerceSet = false;\n    /// @notice To generate a new token for the specified address\n    /// @param _to The receiver of this new token\n    /// @param _tokenId The new token id, must be unique\n    function mint(address _to, uint256 _tokenId) public {\n        require(msg.sender == ecommerce, 'Only the ecommerce contract can mint new tokens');\n        _mint(_to, _tokenId);\n    }\n\n    /// @notice To set the ecommerce smart contract address\n    function setEcommerce(address _ecommerce) public {\n        require(!isEcommerceSet, 'The ecommerce address can only be set once');\n        require(_ecommerce != address(0), 'The ecommerce address cannot be empty');\n        isEcommerceSet = true;\n        ecommerce = _ecommerce;\n    }\n}\n\n/// @notice The main ecommerce contract to buy and sell ERC-721 tokens representing physical or digital products because we are dealing with non-fungible tokens, there will be only 1 stock per product\n/// @author Merunas Grincalaitis <merunasgrincalaitis@gmail.com>\ncontract Ecommerce {\n    struct Product {\n        uint256 id;\n        string title;\n        string description;\n        uint256 date;\n        address payable owner;\n        uint256 price;\n        string image;\n    }\n    struct Order {\n        uint256 id;\n        address buyer;\n        string nameSurname;\n        string lineOneDirection;\n        string lineTwoDirection;\n        bytes32 city;\n        bytes32 stateRegion;\n        uint256 postalCode;\n        bytes32 country;\n        uint256 phone;\n        string state; // Either 'pending', 'completed'\n    }\n    // Seller address => products\n    mapping(address => Order[]) public pendingSellerOrders; // The products waiting to be fulfilled by the seller, used by sellers to check which orders have to be filled\n    // Buyer address => products\n    mapping(address => Order[]) public pendingBuyerOrders; // The products that the buyer purchased waiting to be sent\n    mapping(address => Order[]) public completedOrders;\n    // Product id => product\n    mapping(uint256 => Product) public productById;\n    // Product id => order\n    mapping(uint256 => Order) public orderById;\n    Product[] public products;\n    uint256 public lastId;\n    address public token;\n\n    /// @notice To setup the address of the ERC-721 token to use for this contract\n    /// @param _token The token address\n    constructor(address _token) public {\n        token = _token;\n    }\n\n    /// @notice To publish a product as a seller\n    /// @param _title The title of the product\n    /// @param _description The description of the product\n    /// @param _price The price of the product in ETH\n    /// @param _image The image URL of the product\n    function publishProduct(string memory _title, string memory _description, uint256 _price, string memory _image) public {\n        require(bytes(_title).length > 0, 'The title cannot be empty');\n        require(bytes(_description).length > 0, 'The description cannot be empty');\n        require(_price > 0, 'The price cannot be empty');\n        require(bytes(_image).length > 0, 'The image cannot be empty');\n\n        Product memory p = Product(lastId, _title, _description, now, msg.sender, _price, _image);\n        products.push(p);\n        productById[lastId] = p;\n        EcommerceToken(token).mint(address(this), lastId); // Create a new token for this product which will be owned by this contract until sold\n        lastId++;\n    }\n\n    /// @notice To buy a new product, note that the seller must authorize this contract to manage the token\n    /// @param _id The id of the product to buy\n    /// @param _nameSurname The name and surname of the buyer\n    /// @param _lineOneDirection The first line for the user address\n    /// @param _lineTwoDirection The second, optional user address line\n    /// @param _city Buyer's city\n    /// @param _stateRegion The state or region where the buyer lives\n    /// @param _postalCode The postal code of his location\n    /// @param _country Buyer's country\n    /// @param _phone The optional phone number for the shipping company\n    function buyProduct(uint256 _id, string memory _nameSurname, string memory _lineOneDirection, string memory _lineTwoDirection, bytes32 _city, bytes32 _stateRegion, uint256 _postalCode, bytes32 _country, uint256 _phone) public payable {\n        // The line 2 address and phone are optional, the rest are mandatory\n        require(bytes(_nameSurname).length > 0, 'The name and surname must be set');\n        require(bytes(_lineOneDirection).length > 0, 'The line one direction must be set');\n        require(_city.length > 0, 'The city must be set');\n        require(_stateRegion.length > 0, 'The state or region must be set');\n        require(_postalCode > 0, 'The postal code must be set');\n        require(_country > 0, 'The country must be set');\n\n        Product memory p = productById[_id];\n        require(bytes(p.title).length > 0, 'The product must exist to be purchased');\n        Order memory newOrder = Order(_id, msg.sender, _nameSurname, _lineOneDirection, _lineTwoDirection, _city, _stateRegion, _postalCode, _country, _phone, 'pending');\n        require(msg.value >= p.price, \"The payment must be larger or equal than the products price\");\n\n        // Delete the product from the array of products\n        for(uint256 i = 0; i < products.length; i++) {\n            if(products[i].id == _id) {\n                Product memory lastElement = products[products.length - 1];\n                products[i] = lastElement;\n                products.length--;\n            }\n        }\n\n        // Return the excess ETH sent by the buyer\n        if(msg.value > p.price) msg.sender.transfer(msg.value - p.price);\n        pendingSellerOrders[p.owner].push(newOrder);\n        pendingBuyerOrders[msg.sender].push(newOrder);\n        orderById[_id] = newOrder;\n        EcommerceToken(token).transferFrom(address(this), msg.sender, _id); // Transfer the product token to the new owner\n        p.owner.transfer(p.price);\n    }\n\n    /// @notice To mark an order as completed\n    /// @param _id The id of the order which is the same for the product id\n    function markOrderCompleted(uint256 _id) public {\n        Order memory order = orderById[_id];\n        Product memory product = productById[_id];\n        require(product.owner == msg.sender, 'Only the seller can mark the order as completed');\n        order.state = 'completed';\n\n        // Delete the seller order from the array of pending orders\n        for(uint256 i = 0; i < pendingSellerOrders[product.owner].length; i++) {\n            if(pendingSellerOrders[product.owner][i].id == _id) {\n                Order memory lastElement = orderById[pendingSellerOrders[product.owner].length - 1];\n                pendingSellerOrders[product.owner][i] = lastElement;\n                pendingSellerOrders[product.owner].length--;\n            }\n        }\n        // Delete the seller order from the array of pending orders\n        for(uint256 i = 0; i < pendingBuyerOrders[order.buyer].length; i++) {\n            if(pendingBuyerOrders[order.buyer][i].id == order.id) {\n                Order memory lastElement = orderById[pendingBuyerOrders[order.buyer].length - 1];\n                pendingBuyerOrders[order.buyer][i] = lastElement;\n                pendingBuyerOrders[order.buyer].length--;\n            }\n        }\n        completedOrders[order.buyer].push(order);\n        orderById[_id] = order;\n    }\n\n    /// @notice Returns the product length\n    /// @return uint256 The number of products\n    function getProductsLength() public view returns(uint256) {\n        return products.length;\n    }\n\n    /// @notice To get the pending seller or buyer orders\n    /// @param _type If you want to get the pending seller, buyer or completed orders\n    /// @param _owner The owner of those orders\n    /// @return uint256 The number of orders to get\n    function getOrdersLength(bytes32 _type, address _owner) public view returns(uint256) {\n        if(_type == 'seller') return pendingSellerOrders[_owner].length;\n        else if(_type == 'buyer') return pendingBuyerOrders[_owner].length;\n        else if(_type == 'completed') return completedOrders[_owner].length;\n    }\n}\n",
  "sourcePath": "/Users/merunas/Desktop/ecommerce-dapp/contracts/Ecommerce.sol",
  "compiler": {
    "name": "solc",
    "version": "0.5.4+commit.9549d8ff.Emscripten.clang"
  },
  "schemaVersion": "3.0.0-beta.2",
  "updatedAt": "2019-04-02T19:52:57.053Z",
  "devdoc": {
    "author": "Merunas Grincalaitis <merunasgrincalaitis@gmail.com>",
    "methods": {
      "buyProduct(uint256,string,string,string,bytes32,bytes32,uint256,bytes32,uint256)": {
        "params": {
          "_city": "Buyer's city",
          "_country": "Buyer's country",
          "_id": "The id of the product to buy",
          "_lineOneDirection": "The first line for the user address",
          "_lineTwoDirection": "The second, optional user address line",
          "_nameSurname": "The name and surname of the buyer",
          "_phone": "The optional phone number for the shipping company",
          "_postalCode": "The postal code of his location",
          "_stateRegion": "The state or region where the buyer lives"
        }
      },
      "constructor": {
        "params": {
          "_token": "The token address"
        }
      },
      "getOrdersLength(bytes32,address)": {
        "params": {
          "_owner": "The owner of those orders",
          "_type": "If you want to get the pending seller, buyer or completed orders"
        },
        "return": "uint256 The number of orders to get"
      },
      "getProductsLength()": {
        "return": "uint256 The number of products"
      },
      "markOrderCompleted(uint256)": {
        "params": {
          "_id": "The id of the order which is the same for the product id"
        }
      },
      "publishProduct(string,string,uint256,string)": {
        "params": {
          "_description": "The description of the product",
          "_image": "The image URL of the product",
          "_price": "The price of the product in ETH",
          "_title": "The title of the product"
        }
      }
    }
  },
  "userdoc": {
    "methods": {
      "buyProduct(uint256,string,string,string,bytes32,bytes32,uint256,bytes32,uint256)": {
        "notice": "To buy a new product, note that the seller must authorize this contract to manage the token"
      },
      "constructor": "To setup the address of the ERC-721 token to use for this contract",
      "getOrdersLength(bytes32,address)": {
        "notice": "To get the pending seller or buyer orders"
      },
      "getProductsLength()": {
        "notice": "Returns the product length"
      },
      "markOrderCompleted(uint256)": {
        "notice": "To mark an order as completed"
      },
      "publishProduct(string,string,uint256,string)": {
        "notice": "To publish a product as a seller"
      }
    },
    "notice": "The main ecommerce contract to buy and sell ERC-721 tokens representing physical or digital products because we are dealing with non-fungible tokens, there will be only 1 stock per product"
  }
}