{
  "contractName": "EcommerceToken",
  "abi": [
    {
      "constant": true,
      "inputs": [
        {
          "name": "interfaceId",
          "type": "bytes4"
        }
      ],
      "name": "supportsInterface",
      "outputs": [
        {
          "name": "",
          "type": "bool"
        }
      ],
      "payable": false,
      "stateMutability": "view",
      "type": "function",
      "signature": "0x01ffc9a7"
    },
    {
      "constant": true,
      "inputs": [
        {
          "name": "tokenId",
          "type": "uint256"
        }
      ],
      "name": "getApproved",
      "outputs": [
        {
          "name": "",
          "type": "address"
        }
      ],
      "payable": false,
      "stateMutability": "view",
      "type": "function",
      "signature": "0x081812fc"
    },
    {
      "constant": false,
      "inputs": [
        {
          "name": "to",
          "type": "address"
        },
        {
          "name": "tokenId",
          "type": "uint256"
        }
      ],
      "name": "approve",
      "outputs": [],
      "payable": false,
      "stateMutability": "nonpayable",
      "type": "function",
      "signature": "0x095ea7b3"
    },
    {
      "constant": false,
      "inputs": [
        {
          "name": "from",
          "type": "address"
        },
        {
          "name": "to",
          "type": "address"
        },
        {
          "name": "tokenId",
          "type": "uint256"
        }
      ],
      "name": "transferFrom",
      "outputs": [],
      "payable": false,
      "stateMutability": "nonpayable",
      "type": "function",
      "signature": "0x23b872dd"
    },
    {
      "constant": false,
      "inputs": [
        {
          "name": "from",
          "type": "address"
        },
        {
          "name": "to",
          "type": "address"
        },
        {
          "name": "tokenId",
          "type": "uint256"
        }
      ],
      "name": "safeTransferFrom",
      "outputs": [],
      "payable": false,
      "stateMutability": "nonpayable",
      "type": "function",
      "signature": "0x42842e0e"
    },
    {
      "constant": true,
      "inputs": [
        {
          "name": "tokenId",
          "type": "uint256"
        }
      ],
      "name": "ownerOf",
      "outputs": [
        {
          "name": "",
          "type": "address"
        }
      ],
      "payable": false,
      "stateMutability": "view",
      "type": "function",
      "signature": "0x6352211e"
    },
    {
      "constant": true,
      "inputs": [
        {
          "name": "owner",
          "type": "address"
        }
      ],
      "name": "balanceOf",
      "outputs": [
        {
          "name": "",
          "type": "uint256"
        }
      ],
      "payable": false,
      "stateMutability": "view",
      "type": "function",
      "signature": "0x70a08231"
    },
    {
      "constant": false,
      "inputs": [
        {
          "name": "to",
          "type": "address"
        },
        {
          "name": "approved",
          "type": "bool"
        }
      ],
      "name": "setApprovalForAll",
      "outputs": [],
      "payable": false,
      "stateMutability": "nonpayable",
      "type": "function",
      "signature": "0xa22cb465"
    },
    {
      "constant": false,
      "inputs": [
        {
          "name": "from",
          "type": "address"
        },
        {
          "name": "to",
          "type": "address"
        },
        {
          "name": "tokenId",
          "type": "uint256"
        },
        {
          "name": "_data",
          "type": "bytes"
        }
      ],
      "name": "safeTransferFrom",
      "outputs": [],
      "payable": false,
      "stateMutability": "nonpayable",
      "type": "function",
      "signature": "0xb88d4fde"
    },
    {
      "constant": true,
      "inputs": [],
      "name": "isEcommerceSet",
      "outputs": [
        {
          "name": "",
          "type": "bool"
        }
      ],
      "payable": false,
      "stateMutability": "view",
      "type": "function",
      "signature": "0xdbbb58a4"
    },
    {
      "constant": true,
      "inputs": [
        {
          "name": "owner",
          "type": "address"
        },
        {
          "name": "operator",
          "type": "address"
        }
      ],
      "name": "isApprovedForAll",
      "outputs": [
        {
          "name": "",
          "type": "bool"
        }
      ],
      "payable": false,
      "stateMutability": "view",
      "type": "function",
      "signature": "0xe985e9c5"
    },
    {
      "constant": true,
      "inputs": [],
      "name": "ecommerce",
      "outputs": [
        {
          "name": "",
          "type": "address"
        }
      ],
      "payable": false,
      "stateMutability": "view",
      "type": "function",
      "signature": "0xf2b87c0d"
    },
    {
      "anonymous": false,
      "inputs": [
        {
          "indexed": true,
          "name": "from",
          "type": "address"
        },
        {
          "indexed": true,
          "name": "to",
          "type": "address"
        },
        {
          "indexed": true,
          "name": "tokenId",
          "type": "uint256"
        }
      ],
      "name": "Transfer",
      "type": "event",
      "signature": "0xddf252ad1be2c89b69c2b068fc378daa952ba7f163c4a11628f55a4df523b3ef"
    },
    {
      "anonymous": false,
      "inputs": [
        {
          "indexed": true,
          "name": "owner",
          "type": "address"
        },
        {
          "indexed": true,
          "name": "approved",
          "type": "address"
        },
        {
          "indexed": true,
          "name": "tokenId",
          "type": "uint256"
        }
      ],
      "name": "Approval",
      "type": "event",
      "signature": "0x8c5be1e5ebec7d5bd14f71427d1e84f3dd0314c0f7b2291e5b200ac8c7c3b925"
    },
    {
      "anonymous": false,
      "inputs": [
        {
          "indexed": true,
          "name": "owner",
          "type": "address"
        },
        {
          "indexed": true,
          "name": "operator",
          "type": "address"
        },
        {
          "indexed": false,
          "name": "approved",
          "type": "bool"
        }
      ],
      "name": "ApprovalForAll",
      "type": "event",
      "signature": "0x17307eab39ab6107e8899845ad3d59bd9653f200f220920489ca2b5937696c31"
    },
    {
      "constant": false,
      "inputs": [
        {
          "name": "_to",
          "type": "address"
        },
        {
          "name": "_tokenId",
          "type": "uint256"
        }
      ],
      "name": "mint",
      "outputs": [],
      "payable": false,
      "stateMutability": "nonpayable",
      "type": "function",
      "signature": "0x40c10f19"
    },
    {
      "constant": false,
      "inputs": [
        {
          "name": "_ecommerce",
          "type": "address"
        }
      ],
      "name": "setEcommerce",
      "outputs": [],
      "payable": false,
      "stateMutability": "nonpayable",
      "type": "function",
      "signature": "0xb58aeed4"
    }
  ],
  "bytecode": "0x60806040526000600560146101000a81548160ff02191690831515021790555061005a6301ffc9a77c01000000000000000000000000000000000000000000000000000000000261009a640100000000026401000000009004565b6100956380ac58cd7c01000000000000000000000000000000000000000000000000000000000261009a640100000000026401000000009004565b610157565b63ffffffff7c010000000000000000000000000000000000000000000000000000000002817bffffffffffffffffffffffffffffffffffffffffffffffffffffffff1916141515156100eb57600080fd5b6001600080837bffffffffffffffffffffffffffffffffffffffffffffffffffffffff19167bffffffffffffffffffffffffffffffffffffffffffffffffffffffff1916815260200190815260200160002060006101000a81548160ff02191690831515021790555050565b611641806101666000396000f3fe608060405234801561001057600080fd5b5060043610610107576000357c01000000000000000000000000000000000000000000000000000000009004806370a08231116100a9578063b88d4fde11610083578063b88d4fde146104b1578063dbbb58a4146105b6578063e985e9c5146105d8578063f2b87c0d1461065457610107565b806370a08231146103c5578063a22cb4651461041d578063b58aeed41461046d57610107565b806323b872dd116100e557806323b872dd1461022d57806340c10f191461029b57806342842e0e146102e95780636352211e1461035757610107565b806301ffc9a71461010c578063081812fc14610171578063095ea7b3146101df575b600080fd5b6101576004803603602081101561012257600080fd5b8101908080357bffffffffffffffffffffffffffffffffffffffffffffffffffffffff1916906020019092919050505061069e565b604051808215151515815260200191505060405180910390f35b61019d6004803603602081101561018757600080fd5b8101908080359060200190929190505050610705565b604051808273ffffffffffffffffffffffffffffffffffffffff1673ffffffffffffffffffffffffffffffffffffffff16815260200191505060405180910390f35b61022b600480360360408110156101f557600080fd5b81019080803573ffffffffffffffffffffffffffffffffffffffff16906020019092919080359060200190929190505050610756565b005b6102996004803603606081101561024357600080fd5b81019080803573ffffffffffffffffffffffffffffffffffffffff169060200190929190803573ffffffffffffffffffffffffffffffffffffffff1690602001909291908035906020019092919050505061089b565b005b6102e7600480360360408110156102b157600080fd5b81019080803573ffffffffffffffffffffffffffffffffffffffff169060200190929190803590602001909291905050506108c0565b005b610355600480360360608110156102ff57600080fd5b81019080803573ffffffffffffffffffffffffffffffffffffffff169060200190929190803573ffffffffffffffffffffffffffffffffffffffff16906020019092919080359060200190929190505050610976565b005b6103836004803603602081101561036d57600080fd5b8101908080359060200190929190505050610997565b604051808273ffffffffffffffffffffffffffffffffffffffff1673ffffffffffffffffffffffffffffffffffffffff16815260200191505060405180910390f35b610407600480360360208110156103db57600080fd5b81019080803573ffffffffffffffffffffffffffffffffffffffff169060200190929190505050610a15565b6040518082815260200191505060405180910390f35b61046b6004803603604081101561043357600080fd5b81019080803573ffffffffffffffffffffffffffffffffffffffff169060200190929190803515159060200190929190505050610aa0565b005b6104af6004803603602081101561048357600080fd5b81019080803573ffffffffffffffffffffffffffffffffffffffff169060200190929190505050610bdc565b005b6105b4600480360360808110156104c757600080fd5b81019080803573ffffffffffffffffffffffffffffffffffffffff169060200190929190803573ffffffffffffffffffffffffffffffffffffffff169060200190929190803590602001909291908035906020019064010000000081111561052e57600080fd5b82018360208201111561054057600080fd5b8035906020019184600183028401116401000000008311171561056257600080fd5b91908080601f016020809104026020016040519081016040528093929190818152602001838380828437600081840152601f19601f820116905080830192505050505050509192919290505050610d2b565b005b6105be610d53565b604051808215151515815260200191505060405180910390f35b61063a600480360360408110156105ee57600080fd5b81019080803573ffffffffffffffffffffffffffffffffffffffff169060200190929190803573ffffffffffffffffffffffffffffffffffffffff169060200190929190505050610d66565b604051808215151515815260200191505060405180910390f35b61065c610dfa565b604051808273ffffffffffffffffffffffffffffffffffffffff1673ffffffffffffffffffffffffffffffffffffffff16815260200191505060405180910390f35b6000806000837bffffffffffffffffffffffffffffffffffffffffffffffffffffffff19167bffffffffffffffffffffffffffffffffffffffffffffffffffffffff1916815260200190815260200160002060009054906101000a900460ff169050919050565b600061071082610e20565b151561071b57600080fd5b6002600083815260200190815260200160002060009054906101000a900473ffffffffffffffffffffffffffffffffffffffff169050919050565b600061076182610997565b90508073ffffffffffffffffffffffffffffffffffffffff168373ffffffffffffffffffffffffffffffffffffffff161415151561079e57600080fd5b8073ffffffffffffffffffffffffffffffffffffffff163373ffffffffffffffffffffffffffffffffffffffff1614806107de57506107dd8133610d66565b5b15156107e957600080fd5b826002600084815260200190815260200160002060006101000a81548173ffffffffffffffffffffffffffffffffffffffff021916908373ffffffffffffffffffffffffffffffffffffffff160217905550818373ffffffffffffffffffffffffffffffffffffffff168273ffffffffffffffffffffffffffffffffffffffff167f8c5be1e5ebec7d5bd14f71427d1e84f3dd0314c0f7b2291e5b200ac8c7c3b92560405160405180910390a4505050565b6108a53382610e92565b15156108b057600080fd5b6108bb838383610f27565b505050565b600560009054906101000a900473ffffffffffffffffffffffffffffffffffffffff1673ffffffffffffffffffffffffffffffffffffffff163373ffffffffffffffffffffffffffffffffffffffff16141515610968576040517f08c379a000000000000000000000000000000000000000000000000000000000815260040180806020018281038252602f8152602001806115e7602f913960400191505060405180910390fd5b61097282826110ee565b5050565b6109928383836020604051908101604052806000815250610d2b565b505050565b6000806001600084815260200190815260200160002060009054906101000a900473ffffffffffffffffffffffffffffffffffffffff169050600073ffffffffffffffffffffffffffffffffffffffff168173ffffffffffffffffffffffffffffffffffffffff1614151515610a0c57600080fd5b80915050919050565b60008073ffffffffffffffffffffffffffffffffffffffff168273ffffffffffffffffffffffffffffffffffffffff1614151515610a5257600080fd5b610a99600360008473ffffffffffffffffffffffffffffffffffffffff1673ffffffffffffffffffffffffffffffffffffffff168152602001908152602001600020611238565b9050919050565b3373ffffffffffffffffffffffffffffffffffffffff168273ffffffffffffffffffffffffffffffffffffffff1614151515610adb57600080fd5b80600460003373ffffffffffffffffffffffffffffffffffffffff1673ffffffffffffffffffffffffffffffffffffffff16815260200190815260200160002060008473ffffffffffffffffffffffffffffffffffffffff1673ffffffffffffffffffffffffffffffffffffffff16815260200190815260200160002060006101000a81548160ff0219169083151502179055508173ffffffffffffffffffffffffffffffffffffffff163373ffffffffffffffffffffffffffffffffffffffff167f17307eab39ab6107e8899845ad3d59bd9653f200f220920489ca2b5937696c3183604051808215151515815260200191505060405180910390a35050565b600560149054906101000a900460ff16151515610c44576040517f08c379a000000000000000000000000000000000000000000000000000000000815260040180806020018281038252602a8152602001806115bd602a913960400191505060405180910390fd5b600073ffffffffffffffffffffffffffffffffffffffff168173ffffffffffffffffffffffffffffffffffffffff1614151515610ccc576040517f08c379a00000000000000000000000000000000000000000000000000000000081526004018080602001828103825260258152602001806115986025913960400191505060405180910390fd5b6001600560146101000a81548160ff02191690831515021790555080600560006101000a81548173ffffffffffffffffffffffffffffffffffffffff021916908373ffffffffffffffffffffffffffffffffffffffff16021790555050565b610d3684848461089b565b610d4284848484611246565b1515610d4d57600080fd5b50505050565b600560149054906101000a900460ff1681565b6000600460008473ffffffffffffffffffffffffffffffffffffffff1673ffffffffffffffffffffffffffffffffffffffff16815260200190815260200160002060008373ffffffffffffffffffffffffffffffffffffffff1673ffffffffffffffffffffffffffffffffffffffff16815260200190815260200160002060009054906101000a900460ff16905092915050565b600560009054906101000a900473ffffffffffffffffffffffffffffffffffffffff1681565b6000806001600084815260200190815260200160002060009054906101000a900473ffffffffffffffffffffffffffffffffffffffff169050600073ffffffffffffffffffffffffffffffffffffffff168173ffffffffffffffffffffffffffffffffffffffff161415915050919050565b600080610e9e83610997565b90508073ffffffffffffffffffffffffffffffffffffffff168473ffffffffffffffffffffffffffffffffffffffff161480610f0d57508373ffffffffffffffffffffffffffffffffffffffff16610ef584610705565b73ffffffffffffffffffffffffffffffffffffffff16145b80610f1e5750610f1d8185610d66565b5b91505092915050565b8273ffffffffffffffffffffffffffffffffffffffff16610f4782610997565b73ffffffffffffffffffffffffffffffffffffffff16141515610f6957600080fd5b600073ffffffffffffffffffffffffffffffffffffffff168273ffffffffffffffffffffffffffffffffffffffff1614151515610fa557600080fd5b610fae81611469565b610ff5600360008573ffffffffffffffffffffffffffffffffffffffff1673ffffffffffffffffffffffffffffffffffffffff168152602001908152602001600020611529565b61103c600360008473ffffffffffffffffffffffffffffffffffffffff1673ffffffffffffffffffffffffffffffffffffffff16815260200190815260200160002061154c565b816001600083815260200190815260200160002060006101000a81548173ffffffffffffffffffffffffffffffffffffffff021916908373ffffffffffffffffffffffffffffffffffffffff160217905550808273ffffffffffffffffffffffffffffffffffffffff168473ffffffffffffffffffffffffffffffffffffffff167fddf252ad1be2c89b69c2b068fc378daa952ba7f163c4a11628f55a4df523b3ef60405160405180910390a4505050565b600073ffffffffffffffffffffffffffffffffffffffff168273ffffffffffffffffffffffffffffffffffffffff161415151561112a57600080fd5b61113381610e20565b15151561113f57600080fd5b816001600083815260200190815260200160002060006101000a81548173ffffffffffffffffffffffffffffffffffffffff021916908373ffffffffffffffffffffffffffffffffffffffff1602179055506111d8600360008473ffffffffffffffffffffffffffffffffffffffff1673ffffffffffffffffffffffffffffffffffffffff16815260200190815260200160002061154c565b808273ffffffffffffffffffffffffffffffffffffffff16600073ffffffffffffffffffffffffffffffffffffffff167fddf252ad1be2c89b69c2b068fc378daa952ba7f163c4a11628f55a4df523b3ef60405160405180910390a45050565b600081600001549050919050565b60006112678473ffffffffffffffffffffffffffffffffffffffff16611562565b15156112765760019050611461565b60008473ffffffffffffffffffffffffffffffffffffffff1663150b7a02338887876040518563ffffffff167c0100000000000000000000000000000000000000000000000000000000028152600401808573ffffffffffffffffffffffffffffffffffffffff1673ffffffffffffffffffffffffffffffffffffffff1681526020018473ffffffffffffffffffffffffffffffffffffffff1673ffffffffffffffffffffffffffffffffffffffff16815260200183815260200180602001828103825283818151815260200191508051906020019080838360005b8381101561136d578082015181840152602081019050611352565b50505050905090810190601f16801561139a5780820380516001836020036101000a031916815260200191505b5095505050505050602060405180830381600087803b1580156113bc57600080fd5b505af11580156113d0573d6000803e3d6000fd5b505050506040513d60208110156113e657600080fd5b8101908080519060200190929190505050905063150b7a027c0100000000000000000000000000000000000000000000000000000000027bffffffffffffffffffffffffffffffffffffffffffffffffffffffff1916817bffffffffffffffffffffffffffffffffffffffffffffffffffffffff1916149150505b949350505050565b600073ffffffffffffffffffffffffffffffffffffffff166002600083815260200190815260200160002060009054906101000a900473ffffffffffffffffffffffffffffffffffffffff1673ffffffffffffffffffffffffffffffffffffffff161415156115265760006002600083815260200190815260200160002060006101000a81548173ffffffffffffffffffffffffffffffffffffffff021916908373ffffffffffffffffffffffffffffffffffffffff1602179055505b50565b6115416001826000015461157590919063ffffffff16565b816000018190555050565b6001816000016000828254019250508190555050565b600080823b905060008111915050919050565b600082821115151561158657600080fd5b60008284039050809150509291505056fe5468652065636f6d6d6572636520616464726573732063616e6e6f7420626520656d7074795468652065636f6d6d6572636520616464726573732063616e206f6e6c7920626520736574206f6e63654f6e6c79207468652065636f6d6d6572636520636f6e74726163742063616e206d696e74206e657720746f6b656e73a165627a7a7230582045b0f718c551a65f1efc61329f242d6388e6f766084c63d48853dddb7a321f820029",
  "source": "pragma solidity ^0.5.0;\n\nimport './ERC721.sol';\n\n/// @notice The Ecommerce Token that implements the ERC721 token with mint function\n/// @author Merunas Grincalaitis <merunasgrincalaitis@gmail.com>\ncontract EcommerceToken is ERC721 {\n    address public ecommerce;\n    bool public isEcommerceSet = false;\n    /// @notice To generate a new token for the specified address\n    /// @param _to The receiver of this new token\n    /// @param _tokenId The new token id, must be unique\n    function mint(address _to, uint256 _tokenId) public {\n        require(msg.sender == ecommerce, 'Only the ecommerce contract can mint new tokens');\n        _mint(_to, _tokenId);\n    }\n\n    /// @notice To set the ecommerce smart contract address\n    function setEcommerce(address _ecommerce) public {\n        require(!isEcommerceSet, 'The ecommerce address can only be set once');\n        require(_ecommerce != address(0), 'The ecommerce address cannot be empty');\n        isEcommerceSet = true;\n        ecommerce = _ecommerce;\n    }\n}\n\n/// @notice The main ecommerce contract to buy and sell ERC-721 tokens representing physical or digital products because we are dealing with non-fungible tokens, there will be only 1 stock per product\n/// @author Merunas Grincalaitis <merunasgrincalaitis@gmail.com>\ncontract Ecommerce {\n    struct Product {\n        uint256 id;\n        string title;\n        string description;\n        uint256 date;\n        address payable owner;\n        uint256 price;\n        string image;\n    }\n    struct Order {\n        uint256 id;\n        address buyer;\n        string nameSurname;\n        string lineOneDirection;\n        string lineTwoDirection;\n        bytes32 city;\n        bytes32 stateRegion;\n        uint256 postalCode;\n        bytes32 country;\n        uint256 phone;\n        string state; // Either 'pending', 'completed'\n    }\n    // Seller address => products\n    mapping(address => Order[]) public pendingSellerOrders; // The products waiting to be fulfilled by the seller, used by sellers to check which orders have to be filled\n    // Buyer address => products\n    mapping(address => Order[]) public pendingBuyerOrders; // The products that the buyer purchased waiting to be sent\n    mapping(address => Order[]) public completedOrders;\n    // Product id => product\n    mapping(uint256 => Product) public productById;\n    // Product id => order\n    mapping(uint256 => Order) public orderById;\n    Product[] public products;\n    uint256 public lastId;\n    address public token;\n\n    /// @notice To setup the address of the ERC-721 token to use for this contract\n    /// @param _token The token address\n    constructor(address _token) public {\n        token = _token;\n    }\n\n    /// @notice To publish a product as a seller\n    /// @param _title The title of the product\n    /// @param _description The description of the product\n    /// @param _price The price of the product in ETH\n    /// @param _image The image URL of the product\n    function publishProduct(string memory _title, string memory _description, uint256 _price, string memory _image) public {\n        require(bytes(_title).length > 0, 'The title cannot be empty');\n        require(bytes(_description).length > 0, 'The description cannot be empty');\n        require(_price > 0, 'The price cannot be empty');\n        require(bytes(_image).length > 0, 'The image cannot be empty');\n\n        Product memory p = Product(lastId, _title, _description, now, msg.sender, _price, _image);\n        products.push(p);\n        productById[lastId] = p;\n        EcommerceToken(token).mint(address(this), lastId); // Create a new token for this product which will be owned by this contract until sold\n        lastId++;\n    }\n\n    /// @notice To buy a new product, note that the seller must authorize this contract to manage the token\n    /// @param _id The id of the product to buy\n    /// @param _nameSurname The name and surname of the buyer\n    /// @param _lineOneDirection The first line for the user address\n    /// @param _lineTwoDirection The second, optional user address line\n    /// @param _city Buyer's city\n    /// @param _stateRegion The state or region where the buyer lives\n    /// @param _postalCode The postal code of his location\n    /// @param _country Buyer's country\n    /// @param _phone The optional phone number for the shipping company\n    function buyProduct(uint256 _id, string memory _nameSurname, string memory _lineOneDirection, string memory _lineTwoDirection, bytes32 _city, bytes32 _stateRegion, uint256 _postalCode, bytes32 _country, uint256 _phone) public payable {\n        // The line 2 address and phone are optional, the rest are mandatory\n        require(bytes(_nameSurname).length > 0, 'The name and surname must be set');\n        require(bytes(_lineOneDirection).length > 0, 'The line one direction must be set');\n        require(_city.length > 0, 'The city must be set');\n        require(_stateRegion.length > 0, 'The state or region must be set');\n        require(_postalCode > 0, 'The postal code must be set');\n        require(_country > 0, 'The country must be set');\n\n        Product memory p = productById[_id];\n        require(bytes(p.title).length > 0, 'The product must exist to be purchased');\n        Order memory newOrder = Order(_id, msg.sender, _nameSurname, _lineOneDirection, _lineTwoDirection, _city, _stateRegion, _postalCode, _country, _phone, 'pending');\n        require(msg.value >= p.price, \"The payment must be larger or equal than the products price\");\n\n        // Delete the product from the array of products\n        for(uint256 i = 0; i < products.length; i++) {\n            if(products[i].id == _id) {\n                Product memory lastElement = products[products.length - 1];\n                products[i] = lastElement;\n                products.length--;\n            }\n        }\n\n        // Return the excess ETH sent by the buyer\n        if(msg.value > p.price) msg.sender.transfer(msg.value - p.price);\n        pendingSellerOrders[p.owner].push(newOrder);\n        pendingBuyerOrders[msg.sender].push(newOrder);\n        orderById[_id] = newOrder;\n        EcommerceToken(token).transferFrom(address(this), msg.sender, _id); // Transfer the product token to the new owner\n        p.owner.transfer(p.price);\n    }\n\n    /// @notice To mark an order as completed\n    /// @param _id The id of the order which is the same for the product id\n    function markOrderCompleted(uint256 _id) public {\n        Order memory order = orderById[_id];\n        Product memory product = productById[_id];\n        require(product.owner == msg.sender, 'Only the seller can mark the order as completed');\n        order.state = 'completed';\n\n        // Delete the seller order from the array of pending orders\n        for(uint256 i = 0; i < pendingSellerOrders[product.owner].length; i++) {\n            if(pendingSellerOrders[product.owner][i].id == _id) {\n                Order memory lastElement = orderById[pendingSellerOrders[product.owner].length - 1];\n                pendingSellerOrders[product.owner][i] = lastElement;\n                pendingSellerOrders[product.owner].length--;\n            }\n        }\n        // Delete the seller order from the array of pending orders\n        for(uint256 i = 0; i < pendingBuyerOrders[order.buyer].length; i++) {\n            if(pendingBuyerOrders[order.buyer][i].id == order.id) {\n                Order memory lastElement = orderById[pendingBuyerOrders[order.buyer].length - 1];\n                pendingBuyerOrders[order.buyer][i] = lastElement;\n                pendingBuyerOrders[order.buyer].length--;\n            }\n        }\n        completedOrders[order.buyer].push(order);\n        orderById[_id] = order;\n    }\n\n    /// @notice Returns the product length\n    /// @return uint256 The number of products\n    function getProductsLength() public view returns(uint256) {\n        return products.length;\n    }\n\n    /// @notice To get the pending seller or buyer orders\n    /// @param _type If you want to get the pending seller, buyer or completed orders\n    /// @param _owner The owner of those orders\n    /// @return uint256 The number of orders to get\n    function getOrdersLength(bytes32 _type, address _owner) public view returns(uint256) {\n        if(_type == 'seller') return pendingSellerOrders[_owner].length;\n        else if(_type == 'buyer') return pendingBuyerOrders[_owner].length;\n        else if(_type == 'completed') return completedOrders[_owner].length;\n    }\n}\n",
  "sourcePath": "/Users/merunas/Desktop/ecommerce-dapp/contracts/Ecommerce.sol",
  "compiler": {
    "name": "solc",
    "version": "0.5.4+commit.9549d8ff.Emscripten.clang"
  },
  "schemaVersion": "3.0.0-beta.2",
  "updatedAt": "2019-04-02T19:52:57.041Z",
  "devdoc": {
    "author": "Merunas Grincalaitis <merunasgrincalaitis@gmail.com>",
    "methods": {
      "mint(address,uint256)": {
        "params": {
          "_to": "The receiver of this new token",
          "_tokenId": "The new token id, must be unique"
        }
      }
    }
  },
  "userdoc": {
    "methods": {
      "mint(address,uint256)": {
        "notice": "To generate a new token for the specified address"
      },
      "setEcommerce(address)": {
        "notice": "To set the ecommerce smart contract address"
      }
    },
    "notice": "The Ecommerce Token that implements the ERC721 token with mint function"
  }
}